:020000040000FA
:10000000E0030020790100007D010000D918000004
:1000100000000000000000000000000000000000E0
:10002000000000000000000000000000810100004E
:10003000000000000000000083010000DD1C000043
:100040008701000087010000870100008701000090
:100050008701000087010000870100008701000080
:100060008701000087010000870100008701000070
:100070008701000087010000870100008701000060
:100080008701000087010000870100008701000050
:100090008701000087010000870100008701000040
:1000A0008701000087010000870100008701000030
:1000B0008701000087010000870100008701000020
:1000C00000F002F800F048F80CA030C808382418F6
:1000D0002D18671EA246AB4654465D46AC4201D180
:1000E00000F03AF87E460F3EB6460FCC012633426A
:1000F00000D0FB1A3343A246AB461847E85700002E
:1001000008580000103A02D378C878C1FAD85207CC
:1001100001D330C830C101D504680C6070470000BD
:100120000023002400250026103A01D378C1FBD813
:10013000520700D330C100D50B60704710B5782945
:1001400002D100F03DF810BD002010BD1FB500F039
:1001500035FA1FBD10B510BD01F05AF91146FFF771
:10016000F5FF05F07BF801F072F903B4FFF7F2FF39
:1001700003BC01F0C7F9000006480047FEE7FEE7B0
:10018000FEE7FEE7FEE7FEE703480449024A044BA8
:1001900070470000C1000000E0010020E0030020E3
:1001A000E00100200FB4054910B503AA029801F040
:1001B000D1F810BC08BC04B0184700007000002043
:1001C00070B504460D4621461068C046C0462188D9
:1001D000090502D50F4A7A4402E00E4A7A440E32EB
:1001E00023460021243305E006070009360F965DFB
:1001F0005E54491C0028F7D120780023000705D55C
:10020000702D03D0002901D002231132204601F0C5
:1002100048F870BDA6550000F3B50446002081B033
:1002200020622046E168884700287DD0252802D03A
:100230006268A16883E0454F00257F442046E1685D
:1002400088472028064608DB312E06D2B819203808
:100250000078002801D00543F0E7A80701D5042065
:1002600085430020E0610746A0612A2E0AD030466F
:1002700005F025F9002827D0B8000019303E00907D
:10028000866119E00298BA00121902C891610290C1
:100290002046E1688847012F064617D1E06900280B
:1002A0001FDA202085431CE000980A21806948431A
:1002B00000998019303888612046E16888470646F1
:1002C00005F0FDF80028EFD1012F0AD02E2E08D11D
:1002D0002046E16888470646202005437F1C022F00
:1002E000C3DBA069002803DA4042A0610120054376
:1002F000E80701D010208543002E24D03046413835
:10030000192803D80120C002054320362046256065
:100310003146029A1546FFF711FF00280CD001283C
:1003200007D0ED1DE80800E00DE0C00008300290A5
:1003300077E72D1D029574E762683046A168904703
:10034000206A401C6CE7206AFEBD00006A55000070
:1003500010B5044603E004F06FFF401C08D020787D
:100360000549641C0028F6D10A2004F065FF10BD81
:100370000020C04310BD00007000002001E004C058
:10038000091F0429FBD28B0701D50280801CC907F5
:1003900000D00270704700290BD0C30702D0027052
:1003A000401C491E022904D3830702D50280801C09
:1003B000891EE3E70022EEE70022DFE700220309BF
:1003C0008B4273D3030A8B4258D3030B8B423CD32B
:1003D000030C8B4221D312E003460B437FD400224F
:1003E00043088B4274D303098B425FD3030A8B42C9
:1003F00044D3030B8B4228D3030C8B420DD3090249
:10040000FF2212BA030C8B4202D31212090265D0EA
:10041000030B8B4219D300E0090AC30B8B4201D3B3
:10042000CB03C01A5241830B8B4201D38B03C01AFA
:100430005241430B8B4201D34B03C01A5241030B71
:100440008B4201D30B03C01A5241C30A8B4201D322
:10045000CB02C01A5241830A8B4201D38B02C01ACD
:100460005241430A8B4201D34B02C01A5241030A44
:100470008B4201D30B02C01A5241CDD2C3098B4229
:1004800001D3CB01C01A524183098B4201D38B01A6
:10049000C01A524143098B4201D34B01C01A524149
:1004A00003098B4201D30B01C01A5241C3088B428E
:1004B00001D3CB00C01A524183088B4201D38B0079
:1004C000C01A524143088B4201D34B00C01A52411B
:1004D000411A00D201465241104670475DE0CA0FF2
:1004E00000D04942031000D3404253409C460022B2
:1004F00003098B422DD3030A8B4212D38901FC22BC
:1005000012BA030A8B420CD3890192118B4208D391
:10051000890192118B4204D389013AD0921100E0F3
:100520008909C3098B4201D3CB01C01A5241830907
:100530008B4201D38B01C01A524143098B4201D334
:100540004B01C01A524103098B4201D30B01C01A5F
:100550005241C3088B4201D3CB00C01A52418308D9
:100560008B4201D38B00C01A5241D9D243088B422F
:1005700001D34B00C01A5241411A00D201465241E8
:10058000104663465B1001D34042002B00D5494220
:10059000704763465B1000D3404201B50449002810
:1005A00002DC491C084000E00846C046C04602BDC7
:1005B000FFFFFF7F704770477047000070B5064C23
:1005C0007C44064D7D4404E02046016808188047BD
:1005D000241DAC42F8D170BD4053000040530000D0
:1005E0000246C80FC00781434B0030B54B405B004B
:1005F0009B0D20D01923DB06C91801231B05994246
:1006000020DB0324A40704251346AB400BD3002BA7
:1006100004D1EB0613409B00E34204D40124640799
:10062000002312195941FF231B0599420BD2C9001F
:100630000143500F09E0CB0204D5014308030243F4
:1006400005D0054830BDFF21C905084330BD084627
:1006500007210905884330BD0000C07FF0B50C4676
:10066000871A9C410D46861A9D4103D2C01BA141A9
:10067000D21963410D0D1F0DC94EEC1BAE435CD06A
:100680007F057F0D0026002F51D02D05AC46A943D4
:10069000DD020123ED0A1B051D4320231B1B24D46F
:1006A0001746E740381871412F46E740CC199D4066
:1006B0002818314661410C0D27D161449A4013D569
:1006C0000023401C594152000ED140084000012235
:1006D0004B005205D34207D305204007C14201D544
:1006E000B04900E0B0493046F0BD6B00002A00D0B0
:1006F00001229A181F23203C1B1B01D5002302E076
:10070000E540281871410C0DD7D0012424050919A2
:10071000C407CD0740084908E40F28436144002C72
:10072000D5D00024401C61419A40D0D1CDE76A0564
:10073000520DD9D1C90FC907D5E79C4D4E000028ED
:1007400001D0012400E0002434195F00002A01D008
:10075000012600E00026BE19954FAC420CD8AE42EF
:100760000AD8B44206D001256D05EC42BCD0104633
:100770001946F0BD9942FCD000203946F0BDF0B5D5
:100780001FB40C460F46811A9F412546861A9D418B
:1007900006D20125ED076F40401ABC4152187B413B
:1007A000210D1E0D8D1BAC467D4D8D437ED07505F4
:1007B0006D0D7CD00D05AE46AC431B031B0B794D74
:1007C00052429D41202366469B1B14D31746F74097
:1007D000381800260090744160462F460741E419FE
:1007E00000989D402818664116D4714671189A40A9
:1007F00025D5012320E093182A466A415200002B98
:1008000000D0521C1E23203E9B1B002B61DD354176
:10081000EE1728186641E8D5001876415B1C9A400F
:1008200000D3401C4B05F3181524E34010D3002BD4
:1008300052D071467118D30FC01802D3491C05B0AD
:10084000F0BD0123DB079A42F9D140084000F6E7EA
:1008500001225205B21801D1002853D00123CC0A3D
:10086000DB029943891E002A08D1020C03D0020C36
:100870000004103902E00246002020390023550B05
:1008800005D112020823550B01D152010D23550C3D
:1008900001D112011B1DD50C01D192009B1C150D1D
:1008A00001D152005B1C2025EE1A01E02CE022E071
:1008B0000546F54015439840CA1AE1076918130523
:1008C000C918002ABBDA032040070818C10FC9075E
:1008D0000FE071466118B2E7F10740080843711054
:1008E00071444A000CD001235B059A42A7D2C90F7C
:1008F000C9070020A3E74905490D26D1002001E0E2
:100900000028F4D100219AE7284D6600002801D084
:10091000012100E0002171185F00002A01D00126AA
:1009200000E00026BE19224FA94210D8AE420ED8D0
:10093000B14208D001256D05E94206D01946A8024A
:10094000414010467BE79C4201D0214677E70020DA
:10095000394674E710B50C465C4005D50124E40720
:100960006340FFF70CFF10BDFFF778FE10BD30B4F9
:100970000C465C4004D50124E407634030BC6DE6BE
:1009800030BCFCE670B50124E40761400D465D40D3
:1009900002D4FFF763FE70BD6340FFF7F0FE70BD49
:1009A000FF0700000000F0FF0000F07F0000E0FF04
:1009B0000000F87FF0B5F94D0C091E092C402E40BF
:1009C0002F468BB0A7437DD0B543FCD0002E7AD004
:1009D000002CFCD00D465D40ED0F2543AC1BFF25E0
:1009E000AD0464190894C502440DC9022143500D99
:1009F000DC0204430120C00701430443D2020191F9
:100A0000200C110C00958C46010423468B430A915F
:100A100061460904E24D8A430991010A7D4449195E
:100A20008039097805464D4301266D18F605751B7A
:100A30006943C90C640B891C4C436418B5012C1B19
:100A4000250C2E04B4434C434D43210C69188909ED
:100A50000591009DE90701D00121C90704912C46A9
:100A600001996708CD072F434C08059DE10B4D43C5
:100A70002D0C29466646754302950D4645432E4684
:100A8000029D7D1BB44100950D465D4301942C0CE5
:100A90002F040D465543AE462D0C3D43029503945D
:100AA0007546049C2D04641B049406D2029C039D8D
:100AB000641C002675410395029401AC70CC009F24
:100AC0007D1B01E03EE162E1B4410904009507911C
:100AD00001940599A4086143090C0C464443650B35
:100AE000E7040C4666467443A646640B3C430395F4
:100AF00002947446049DE4042C1B049406D2029CC8
:100B0000039D641C002675410395029401AC70CCD2
:100B1000009F7D1BB44101940C465C430095650F1A
:100B2000E7000C465443A646640F3C4303950294E9
:100B30007446049DE4002C1B049406D2029C039D81
:100B4000641C002675410395029401AC70CC009F93
:100B50007D1BB441AE09AF06049DC900AD092F430A
:100B6000049DA406AD060495079D344369180791BA
:100B7000059DE10B4D432D0C2946664675430295B4
:100B80000D4645432E46029D7D1BB44100950D4602
:100B90005D4301942C0C2F040D465543AE462D0C9D
:100BA0003D43029503947546049C2D04641B0494F4
:100BB00006D2029C039D641C002675410395029495
:100BC00001AC70CC009F7D1BB44101948C05069450
:100BD000079C890A611800950791019C0599A40852
:100BE0006143090C0D464543680BEF040D4664460E
:100BF00065436C0B3C43049FED047D1BAC4602D265
:100C00000025641C6841009E019D371B85410846F4
:100C1000584301950C46460FC5005443600F2843C6
:100C20006546E4002C1B02D20025401C6E41019D4C
:100C30003F1AB5412846BD09800628438446A009CD
:100C4000BF064E020699A40676180743079D0020AA
:100C500068410A99079019430020099B009060465B
:100C6000FF1913434041E20F64003A43A44604468F
:100C7000D71A8C41A04203D90120009020463A4661
:100C8000C70F941840416246D20F22436446640065
:100C90000494009CBE466400D71AA44604460297FA
:100CA0008C417746002F01D1A04204D96046401CF8
:100CB0008446029A2046C40FA64694184041049ADE
:100CC0000546D20F224364466400D31A8D41714613
:100CD000002901D1A84202D928461A46641C1043B3
:100CE0000122002800D0164361020020079B8919C9
:100CF00004465C410223002C02DB49181346644180
:100D0000089DCE0A2D145D194B056705E10A2C05D7
:100D10000D1908993E43C9076940002B08D093403C
:100D200006D30022761C5141002B01D176087600B3
:100D30001C4A002D43DB154241D0AA433FD0304628
:100D40000BB0F0BD06180D464D41174C7642AC4134
:100D50001AD395181C465C41134A6D42A24113D325
:100D6000012252054C00D4420AD15C00D4420BD07F
:100D70004B4002D592021143E2E749004908DFE700
:100D80005940C90FC90718E000200849D8E70548AD
:100D900001420DD10342F7D0F2E700000000FF0747
:100DA000994D00000000F07F0000E0FF0000F87F98
:100DB000114859400143C01241400020C0E70123BF
:100DC000089A9B069A4205DC032252078918C90F2C
:100DD000C907B5E7052252078918074A1143D212FD
:100DE0005140ADE770B515461C4602460B462846F5
:100DF0002146FFF7DFFD70BDFFFFFF7FF0B58B4C95
:100E00000F09254689B0BD437BD01D092646AE4358
:100E1000FAD00E465E402740F60F3E43254071D083
:100E200024012142FBD0FF24AD19A4042D1B0395FE
:100E300001252D05DB02DB0AC9022B43C90A294320
:100E40001E010901040F130F050121431701880B2F
:100E5000820391432D098C46A90B1E438A039543B7
:100E6000B30B9A0396433F09BA0B9403A743029628
:100E70002E467E430497B6464E19D7190C46019666
:100E8000544305977E43371B7646BF1B3601B64653
:100E9000BE0B361900967646BC043719009C01D368
:100EA000641C00946400002F01D001263443029E8C
:100EB000049F754366467E430496760034196E009F
:100EC00034190094029C019E1C196643751BAE46A2
:100ED000069465464519059C05956C43594375462E
:100EE0000891691A0191049E01465143A41B049183
:100EF000611A009C0791E10605D0610901221143A6
:100F000002E072E06EE06109089D00272C0A2D06C0
:100F10006918049D7C412A0A2D066918019D6241C9
:100F2000AC0DAD026D185441079A910D92025519FE
:100F30006141029A644658435443069B059A5A43BA
:100F4000121A131B9A0E9B015B187A41010B0005C4
:100F5000C3185141220A200644195A419A4200D22C
:100F6000491C01204002814203D315230226F64387
:100F700002E014230326F6432020C51AA940174691
:100F8000AF40DA400A4320460399D8400914731849
:100F900019055118039A3843D2075140AC4009D083
:100FA0000122944006D30022401C5141002C01D163
:100FB000400840001E4A934212D301220398920631
:100FC000904207DB0520400709181A480143C01268
:100FD000414004E0032040070818C10FC907002062
:100FE00009B0F0BD0020F107FAE705180C464C41A6
:100FF00011486D42A04115D394181A465A410E4823
:10100000644290410ED301204A004005824209D338
:101010005A00824206D35940C90F084AC907002026
:101020001143DDE700200649DAE700000000FF0772
:10103000FE070000FFFFFF7F0000E0FF0000F07FE1
:101040000000F87F0121C9050123411842001B0659
:10105000D3185B0E0AD0C1100722D20689184007A8
:101060005242D14201D5520089187047090208D571
:101070000146002A03D0C10FC9070020704710465F
:101080007047420202D0002002497047072109053B
:101090000143F4E70000F87FF0B5FF252D04C609F1
:1010A000C209FF2704462E400137CB093E43484082
:1010B0002A402B400746002A6BD0002B69D0AA4259
:1010C00067D0AB4265D0002800DA32460125ED0535
:1010D00029432C4309022002090AD21A4B0C7F240F
:1010E000E31A434C000A7C44E35C7D242404121977
:1010F00014145B00A218884201D3521C00E0400087
:1011000049420C465C4324115C43DB016415E3183F
:10111000040A5C43C502200D0C4644436419250AA9
:101120005D432303EC0C0D46654300030019EB18E7
:101130004C42A34201D35B18401CD4052018002B5D
:1011400007D05B00C91804D3401C002901D1400816
:1011500040003F2189048A4209D3002A08DC110695
:10116000090F04D0032149074018C00FC007F0BD84
:1011700001224100120689187F2252069142F6D2BE
:1011800005214907C84201D59010F0BDFF20C005D8
:10119000F0BD002F00DA32461648AA4207D2AB4211
:1011A00005D21902090E17D0F80FC007F0BDFF25B0
:1011B00063002D06AB42F9D84900A942F6D8AB42EC
:1011C00001D1A942F2D0A94201D1002101E0610080
:1011D0004908D0050843F0BD1102090EFBD0FF20DD
:1011E0000243D005F0BD0A460146104654E7000010
:1011F0004F4700000000C07F10B501469E2400024A
:10120000CA15A307002A02D01843002A04DBA21A39
:10121000002A0CDDD04010BD1206120E01D1400094
:101220004008A21A03D4D04040420028F3DDFF2238
:1012300048001206904201D9002010BDC817C043D3
:10124000584010BD1F22030C02D10F2200041CD0F5
:10125000030E01D10002083A030F01D10001121F51
:10126000830F01D18000921E002801DB4000521E36
:10127000D2055118021251181922904004D3491C6A
:10128000002801D14908490008467047C10FC90725
:1012900000D04042012292071143D3E70121890780
:1012A000D0E7FFB504460D4681B024300090216898
:1012B000880604D51022E0699143216000E00120F6
:1012C000A84201DD471B00E000270498A1697A19B4
:1012D0001018081AA0612078C00602D42046C04623
:1012E000C046002608E003986268A168805D9047C8
:1012F000206A401C761C206204988642F3DB20782A
:10130000C0060AD52046C046C04606E06268A1680D
:1013100030209047206A401C206238467F1E0028FB
:10132000F4DC07E000986268A168405D9047206A9D
:10133000401C206228466D1E0028F3DC2046C04673
:10134000C0462078000602D5022005B0F0BD01207D
:10135000FBE70000084B70B50D467B4400F013F826
:101360000446284603F064FF002802D00020C04352
:1013700070BD204670BD0000DB3E000001694A1CC4
:1013800002610878704700B58FB002910021059185
:101390000549019379440391114604906846FEF78C
:1013A0003BFF0FB000BD0000E5FFFFFF10B5FF23BE
:1013B0001B0644009C421DD84C009C421AD8034690
:1013C000124A0B4307D4401A02D3EFF3008010BD3A
:1013D000EFF3008010BD081A03D3EFF300809043B1
:1013E00005E0EFF3008001219043C907084380F333
:1013F000008810BD0D231B041A4204D011460020A2
:1014000000F02DF810BD00F041F810BD0000009074
:10141000754600F043F8AE46050069465346C008DD
:10142000C000854618B020B5FEF7AEFE60BCB646DB
:1014300000260027C0C5C0C5C0C5C0C5C0C5C0C541
:10144000C0C5C0C5403D490849008D46704710B52C
:101450000446C046C0462046FEF787FE10BDC802BF
:1014600012D54803400F002804D0C803C04301210F
:1014700088407047EFF3008000010009032109074D
:10148000084380F3008870470020704710B5024879
:1014900000F008F810BD00000000C07F0048704751
:1014A0000800002010B50C461107090F092904D0C7
:1014B0000A290AD008290CD104E011460820FFF7B8
:1014C000CEFF06E0510606D501E0510601D5012008
:1014D000C007214610BDD10607D501010909CC0876
:1014E0004907000E0006044309E0410F20024907A6
:1014F000000A0143200E00061D22D1410143084687
:10150000E7E7000001491820ABBEFEE72600020015
:101510007047000003480168FF22914319430160AE
:101520007047C04624000E401F21014001228A401E
:10153000C00F800002494358134343507047C046D0
:1015400004020050F0B589B0089101273904884C95
:1015500022680A432260214620390A68854D002806
:101560000FD00426334632430A6029462246143AF5
:101570001268D20601D4491CF8D3F90403917E49BC
:1015800010E001231A4302263346B2430A6029467B
:101590002246143A1268D20701D1491CF8D300211F
:1015A0000391764905911C46089D754969184A1EA4
:1015B00074494B1E00219A42019001D2029113E01E
:1015C000714AAA18714B9A4203D86D000895029788
:1015D0000AE06F4AAA186F4B9A4200D992E0089825
:1015E00080000890032002907D02CF430797049467
:1015F00003E0069C641C222C3ED00598214603F093
:1016000035FE66494118644A91420694F1D2022699
:10161000002103E0491C761C8D42EAD00346734347
:10162000574A9A18574CA242F4D2089CE21A00D2A8
:101630001A1BBA42EED2002A1746EBD10698400296
:101640005A4A8018029CA203039B1A4302430A438E
:1016500047490A60474A084614380068400701D4E1
:10166000521CF8D3611C06984143059803F0FEFD17
:101670004643304609B0F0BD049C03E0049C641C62
:10168000222C3FD00598214603F0F0FD4349411834
:10169000414A91420494F1D20226002103E0491C00
:1016A000761C8D42EAD003467343354A9A18354C6E
:1016B000A242F4D2089CE21A00D21A1B079B9A425B
:1016C000EDD2BA420792EAD104984002374A801814
:1016D000029CA203039B1A4302430A4324490A6063
:1016E000244A084614380068400701D4521CF8D335
:1016F000611C04984143059803F0B8FD4643304609
:1017000009B0F0BD0198002801D0264800E0244827
:101710001749184A0860084614380068400701D481
:10172000521CF8D3086805210904084203D000269A
:10173000304609B0F0BD010301D50F4E00E00F4E59
:10174000810396D40104890F17A2525C8104C90E4B
:10175000891C514301225202521E0240921CB008C1
:10176000504303F083FD8600304609B0F0BDC0460B
:10177000200200507F0ADFFF00805101001BB700EC
:10178000001F0AFA01E1F505800F05FD80F0FA025D
:10179000C08782FE3F787D01BF77CC00FF95E7FFD1
:1017A00016400000184408000102020400FCFFFF7C
:1017B00080B500F099FAF348006880BD09480068D8
:1017C00003210140012901D00020704706487047DD
:1017D0000448006803210140022901D0002070471D
:1017E0000148704700020050001BB70070B5C300ED
:1017F0001C0F0E4B0AD0C501ED0EAC40C50E0C26D9
:101800002E401E433568A5430D433560810AC9B299
:1018100000290AD08405E40EA140000C0C240440E9
:10182000181983688B431343836070BD1002005006
:1018300010B5CB070ED18B0713D44B0719D40B0768
:101840001FD4CB0625D48B062CD44B0633D40906E3
:101850003AD410BD03680324A343134303608B07EA
:10186000EBD503680C24A34394001C4304604B078E
:10187000E5D503683024A34314011C4304600B071F
:10188000DFD50368C024A34394011C430460CB0646
:10189000D9D503231B0204689C431302234303602E
:1018A0008B06D2D503239B0204689C4393022343F7
:1018B00003604B06CBD503231B0304689C4313032F
:1018C000234303600906C4D50321890303688B43BE
:1018D00091031943016010BD064804207146084277
:1018E00003D0EFF30980714606E0EFF3088003E0D0
:1018F000FEE7C046F9180000044612A0FEF728FDD6
:1019000021681648FEF74EFC61681548FEF74AFC50
:10191000A1681448FEF746FCE1681348FEF742FC54
:1019200021691248FEF73EFC61691148FEF73AFC56
:10193000A1691048FEF736FCE1690F48FEF732FC5A
:10194000FEE7C046496E2048617264204661756CAE
:10195000742048616E646C6572000000815800005C
:101960008D58000099580000A5580000C958000083
:10197000BD580000B1580000D558000070B50446AD
:10198000804E30680A256843890003F06FFC401DD3
:10199000294603F06BFC411E2161216840220A4365
:1019A00022608100306803F061FC70BDF0B589B041
:1019B0001E4601910446734800680390114603F0E7
:1019C00055FC03210F460B04FF2105910D04012155
:1019D000069109066C4A884208930795029404967A
:1019E0000FD96A4988423D46074625D9684887424B
:1019F0003BD96848874252D967488742059E7FD8BD
:101A000067E00090801801462940994201D3060CF6
:101A100000E002263D46009FF4B23846214603F01E
:101A200025FC594A911C8842089B05D281B24C433F
:101A3000401E0890042568E0780881180A46079C33
:101A400022409A4201D30E0C00E00226F4B2214655
:101A500003F00CFC4C4A911C884206D281B26143CF
:101A60004C00401E089000254FE0B80881180A4637
:101A7000079B1A40089B9A4201D30E0C00E00226F5
:101A8000F4B2214603F0F2FB3F4A911C884206D291
:101A900081B261438C00401E0890069D35E0F80835
:101AA00081180A46079B1A40089B9A4201D30E0CE4
:101AB00000E00226F4B2214603F0D8FB324A911C22
:101AC000884206D281B26143CC00401E08900225B4
:101AD0001BE038098118079B0B40089A934201D3F9
:101AE0000E0C00E00226F4B2214603F0BFFB2649AB
:101AF000891C884204D281B261430C01401E03E07C
:101B0000F0B2264C444326480890019887000420F0
:101B100039468143701EC2B28A40059B8B402148E2
:101B20000168994311430160BD400721B9404268F3
:101B30008A432A4342600821B940069AD207836843
:101B400093430B4383600398214603F08FFB0446C5
:101B5000049800280BD008998DB2691C4843642171
:101B600003F084FB029AD119401E486205E0029AF4
:101B7000D01900214162089885B2D019C56020466D
:101B800009B0F0BD68000020FFFF00000100000266
:101B900003000004070000080F000010E0FF1F0012
:101BA000FEFF000000000440024802680A43026091
:101BB0007047C0465C00044010B501200A46024050
:101BC000CB0010241C40A21803028C011C40A21858
:101BD00003034C021C40A21803040C031C40A2186F
:101BE0000005C9030140881802490A6802430A60D7
:101BF00010BDC046080004408168082291438160FE
:101C0000704780B5202B01D0DB0000E000230A43A1
:101C10001A43026001229304029A994201D11021D1
:101C20008160114600F002F880BD000070B50D46DD
:101C300004467D4801688906890F0BD0016830226F
:101C40000A40202A0ED1C16805200004014228D094
:101C500000260AE0FFF7B2FD0646002805D1FFF78F
:101C6000B7FD01E0FFF7A4FD0646AE42314600D3C2
:101C70002946002913D0304603F0F8FA6168FF22A4
:101C80009143401C4008401EFF2800D310460143EA
:101C900061604000811C304603F0E8FA70BD00200E
:101CA00070BD080303D5624E8803DED402E05F4EA8
:101CB0008803DAD45F480840821CB00850430A0405
:101CC000920F054B9A5C8904C90E891C514303F09D
:101CD000CDFA8600C9E7C04679580000E54801689A
:101CE000491C01607047C046B0B51E4D29690520EA
:101CF00000041D4C014201D0002015E008032046DD
:101D000000D51A488A030FD4194A0A40921C800849
:101D100050430A04920F17A39A5C8904C90E891CC8
:101D2000514303F0A3FA8000134908602A68072191
:101D3000114007D0032904D00229044602D00B4CDD
:101D400000E00E4CA8680F210140491C204603F01A
:101D50008DFA0B4C20600B4940180B4903F086FAB2
:101D60006060B0BD10020050001BB7000080510140
:101D7000FF01000001020204000000201027000003
:101D80006800002020A1070040420F00F0B581B09C
:101D90000D460446244E3168002020630327E76087
:101DA000A06089018A0F21491CD0012A1CD1F26848
:101DB00005231B041A4219D1100300D51C499003B6
:101DC00010D41C481040831C880858431104890F04
:101DD000194B5B5C9104C90E891C594303F046FA08
:101DE000800003E0084601E01448006871680905B6
:101DF000090F491C03F03AFA002D13D00646680873
:101E00003018294603F032FA801E010C07D0E80092
:101E10003018294603F02AFA0009801E01E039072C
:101E20000843606201B0F0BD14020050001BB7000F
:101E300000805101FF0100007D58000004000020D7
:101E400010B5044C204601F087FD0348214600F000
:101E5000B7FC10BD2001002078000020F0B591B043
:101E6000074600200E900D9006900C907D20C60035
:101E7000804D2C687443804800688049081A70437C
:101E800003F0F4F900190297103701970121059129
:101E90000990079003E00A98002800D1E4E02C683C
:101EA0007443754800687549081A704303F0DEF9F9
:101EB00002190998101A734988420B9205D3002120
:101EC0006F4801600A91089191E00798101A6E49D5
:101ED00088420DD30E980D990C9A019B1A60596097
:101EE0009860002166480A910160059808907EE09C
:101EF00002990F686549FEF761FA012500226448DE
:101F00008142284600D810460492069C22462A4068
:101F10000F21424001D0641C0C400B98800AFEF750
:101F20004DFA0694A1420A95284600D304985449D4
:101F300008602420395C38690622009243220FACE5
:101F4000234600F0BBFD60780F9909020818049041
:101F5000F883E078A1780902081838846179109A2A
:101F6000120254187C8400B2FFF790F9494F3946A9
:101F7000FFF792F8054620B2FFF788F93946FFF7D8
:101F80008BF80390049800B2FFF780F93946FFF709
:101F900083F807460C9903F08BFB0A99C90788431D
:101FA0008121CC05214603F067FA002817D10D994D
:101FB000284603F07DFB0121C9070A918843214689
:101FC00003F05AFA00280AD10E99039803F070FB27
:101FD0000A998843214603F05AFA00283BD1002091
:101FE0000E900D900C9005980A900B980790002089
:101FF0000F90204D2C6874431F4F38681F4F381ABC
:102000007043394603F032F90B99611A0818012818
:1020100000DA40E72C68744317480068381A7043A8
:10202000394603F023F90B99611A0818B04200DB16
:1020300031E70F98401C0F902C6874430E480068DD
:10204000381A7043394603F011F90B99611A0818D0
:102050000028DFDC1FE70CA839462A46039B01F065
:102060002FFE05980A90C2E701210898084011B098
:10207000F0BDC0467400002018E000E050C300002E
:10208000584200500087930380841E0024F400000F
:10209000127A0000333383C1F0B587B00F4604468F
:1020A0000F9E01960D9800900C9D204604921146BB
:1020B00003931A462B4600F071F8A0687843052177
:1020C00041433448081805900E9805994A1E059218
:1020D0000029FAD1864F042839D8C04678440079BF
:1020E0004000874402341D242B0002210024814D2E
:1020F00028463A462346FFF759FC032128463A462C
:102100002346FFF753FC042128463A462346FFF7AF
:102110004DFC284621463A462346FFF747FC16E089
:102120000022009201962046049913460DE00023F8
:102130000093019620460499039A06E0002000903F
:10214000019620460499039A2B4600F027F812487E
:1021500006900698411E06910028FAD1022100241B
:10216000644D28463A462346FFF720FC03212846C3
:102170003A462346FFF71AFC042128463A462346EE
:10218000FFF714FC284621463A462346FFF70EFC8B
:1021900007B0F0BD10B6FDFFF0490200F0B583B006
:1021A00002931646524A534D099F00293FD00C46D0
:1021B000019600253846294603F076F9002809D112
:1021C0007F20C6053846314603F061F900283D46B8
:1021D00000D135464849284603F012FAFFF70CF8BB
:1021E00003460221434D28462246FFF7DFFB019EAE
:1021F000002E23D000243846214603F055F900284C
:1022000009D17F20C5053846294603F040F900284A
:102210003C4600D12C463849204603F0F1F9FEF740
:10222000EBFF03460321334D284632460AE00221E4
:1022300000232846FFF7BAFB002EDBD10321002341
:1022400028462B4AFFF7B2FB089E029800283ED092
:1022500000243846214603F027F9002809D17F20C1
:10226000C5053846294603F012F900283C4600D13E
:102270002C462149204603F0C3F9FEF7BDFF034673
:1022800004211C4D2846029AFFF790FB002E26D011
:1022900000243846214603F007F9002809D17F20A1
:1022A000C5053846294603F0F2F800283C4600D11F
:1022B0002C461149204603F0A3F9FEF79DFF034683
:1022C00000210C483246FFF771FB03B0F0BD04213A
:1022D00000232846064AFFF769FB002ED8D10021CB
:1022E0002846034A0B46FFF761FB03B0F0BDC0462A
:1022F00030750000000004400000C842F0B58BB00B
:102300000446C66805693046294603F0CDF8002822
:102310002F4600D13746069464693846214603F0BB
:10232000C3F80028204600D13846534903F099F8F5
:10233000002808D12846314603F0B6F8002805D118
:10234000069D0C3504E00026069C13E0069D103522
:102350002968204603F0A8F8002801D1069C02E075
:10236000069C254614352868444903F085F806463E
:10237000401E864198347D20C700DE480568DC4851
:102380000068D949081A784302F070FF002E09D07E
:102390007D43401906990D6821790029224607D00E
:1023A00091680BE00020A060E06020710BB0F0BDF0
:1023B00000219060D160012111710146401AD06066
:1023C0002F49884256D33C46D34901200860106803
:1023D000411C174611602E46303607960321FDF743
:1023E000FBFF02292CD001292FD0002931D125480B
:1023F0000A900896244900220692312006013046B0
:10240000CC300096019002920391F72045002B46B4
:102410005D3308A805900C2104912A46FFF73CFE85
:1024200019480390069802901848019000962A4691
:102430001D32A535059804992B46FFF72DFE08E0BF
:1024400007A8294601F0D8FE03E007A8294601F0B5
:1024500087FCA84806680025FD606643A44800681C
:10246000A149081A6043A04902F000FF8019B86032
:10247000D24805600BB0F0BD0000A0400000A0C035
:10248000012D310103D900000AD7233C16040000B6
:10249000F0B58FB001469431069101468431059123
:1024A00001460C3104910A90001D03907D20C60066
:1024B0008F4F02968F4800680B90386809900A98F1
:1024C00087682420395C38690622009243220DACCB
:1024D000234600F0F3FA60780D9909020818F88392
:1024E000E178A278120255183D8461790E9A1202A1
:1024F00054187C8400B2FEF7C9FE064628B20A9D35
:10250000FEF7C4FE074620B2FEF7C0FE0890304634
:10251000794C2146FEF7C0FD064638462146FEF7B7
:10252000BBFD074608982146FEF7B6FD0890A9694D
:102530003046029E03F0BCF80446E969384603F0D1
:10254000B7F80746296A089803F0B2F803460498DA
:1025500021463A4601F064FB6868343000F0C0FD63
:10256000039802F02FFB6868059901F077F9286855
:102570008468002102235D4D28460A46FEF7CAFF03
:1025800001200790C002296A01432962099856492F
:10259000081A704302F06AFE0990286B0007FCD409
:1025A0003146173128680840FEF778FE014620467C
:1025B00003F026F80446069D2868504903F020F8E9
:1025C000FEF740FD074608912046FEF73BFD00243C
:1025D00022464B4BFEF712FC3A46089BFEF7BAF92F
:1025E000FDF7FEFF2860474902F03BFF0B9971435E
:1025F000099A521800280B9209D110466E49FDF72E
:10260000DDFE444881423B4F1DD3002220E00A9862
:1026100000683C21415C0229364F0DD03C30002936
:1026200013D110463849FDF7C9FE394881422E4D75
:10263000079A0ED322460CE010463349FDF7BEFE42
:1026400032488142E1D2012202E0027D501E8241E5
:10265000254D2748E8490A603C6874430068281AF9
:102660007043294602F002FE0B99611A08182B49A3
:10267000884203DB06210A9800F052F80A98FFF717
:102680003DFE00200C903C687443194F3868164D8D
:10269000281A7043294602F0E9FD0B99611A0818BF
:1026A000012800DA06E71348046874433868281ADA
:1026B0007043294602F0DAFD0B99611A0818B042FE
:1026C00000DBF7E60C98401C0C900A480468744341
:1026D0003868281A7043294602F0C8FD0B99611A20
:1026E00008180028DFDCE5E650C3000000000E40BB
:1026F00018E000E074000020333383C100007C3F09
:102700000000903F33335340A0860100905F0100EA
:10271000F824010020A107005842005011270000B2
:10272000F0B583B00C46214E0221214F00253046E2
:102730003A462B46FFF73AF9032130463A462B46F4
:10274000FFF734F9042130463A462B46FFF72EF9BD
:10275000304629463A462B46FFF728F91548002C03
:102760001CDDA649A44A012313600191019B5E1E52
:102770000196002BFAD1002313600091009E771E72
:102780000097002EFAD16D1CA542ECD10290029D5B
:102790006E1E0296002DFAD11D46E4E702900299C2
:1027A0004A1E02920029FAD1F8E7C0460000044010
:1027B00030750000404B4C0040420F005842005022
:1027C000F0B587B08422002686508022864D855041
:1027D000016041608160C660066146618661C661D4
:1027E000066246628662814A814BC66382634663A3
:1027F000C362044684346660A660E660074680379C
:102800007C4C7C610197BE614124240605664666C6
:10281000866607466C3758C78267C6670564466494
:10282000866405464C3558C58265C66502900463CA
:10283000714C01200390206070480690069A531E48
:102840000693002AFAD1266006900698421E069248
:102850000028FAD124200B5C0869039900917522A5
:1028600006AC1946234600F029F92078014668395C
:10287000152904D8039A8A4061490A4205D198284B
:1028800003D004210298FFF74BFF5E4D019C059693
:102890000298006887680021022328460A46FEF74E
:1028A00039FE0398C002296A01432962286B000798
:1028B000FCD4286854490840FEF7F0FC014638462D
:1028C00002F09EFE07466069504902F099FEFEF74D
:1028D000B9FB064604913846FEF7B4FB00273A469A
:1028E0004B4BFEF78BFA3246049BFEF733F8FDF7AD
:1028F00077FE6061059E761C402EC8D1454902F0E6
:10290000D3FD002803D002210298FFF709FF0298A7
:102910000830FFF7A3FA0028374C4DD00398206009
:102920003D48069006994A1E06920029FAD10021D8
:1029300021600690069A531E0693002AFAD1039A44
:1029400022600690069A531E0693002AFAD121604F
:102950000690069A531E0693002AFAD1039A226023
:102960000690069A531E0693002AFAD1216006901B
:10297000069A531E0693002AFAD1039A2260069003
:10298000069A531E0693002AFAD121600690069AF1
:10299000531E0693002AFAD1039A22600690069AE3
:1029A000531E0693002AFAD1216006900698411E14
:1029B00006910028FAD113E0174803992160069088
:1029C00006994A1E06920029FAD10021216006903C
:1029D00006994A1E06920029FAD17F1C282FECD1B5
:1029E000029807B0F0BDC0468EC2F53CA69B443BA2
:1029F00000409C45CDCC6C405842005040420F00F6
:102A00000104200000000E40FF03000000007C3F96
:102A10000000903F3333534090D00300F0B583B0B3
:102A200005460068029102F051FD0746286001202A
:102A3000C007AE683446019044403846214602F053
:102A400033FD002806D13846314602F020FD00282B
:102A5000344601D12C6027466869029E314602F057
:102A6000CFFD0446A869394602F0CAFD014620465A
:102A700002F02CFD04466968304602F019FE01465A
:102A8000E86902F0BDFD0146204602F01FFD064642
:102A90002861EC68019F6740394602F005FD002877
:102AA00006D13046214602F0F2FC0028274600D12C
:102AB0002F610298686003B0F0BD0000F0B583B0EC
:102AC0000293E24C20682027384308239843206073
:102AD0000898019020680007FCD54806010EA16007
:102AE000206818433426B043206020680007FCD5D6
:102AF000E068C5B20020182D49D1A26022681A43AF
:102B0000B243226022681207FCD5E268282A3ED12F
:102B100022681825154324229543256022683A43EC
:102B20009A43226022681207FCD501221143A1605A
:102B300021681943B143216021680907FCD5E16888
:102B4000C9B2402923D1009221683C26B1430198A3
:102B5000022812D3471E002210460C250D43256083
:102B600021680907FCD5A168029DA9542168B143D9
:102B7000401CC2B29742F0DC00E000221943216001
:102B800020680007FCD5A068029988540098216845
:102B900018220A4324218A43226003B0F0BDC046B4
:102BA000F0B581B00090234E3046FEF7BDFC224FB9
:102BB0003846FEF7B9FC2148FEF7B6FC0124610750
:102BC000002530462A46FEF711FEE10738462A4620
:102BD000FEF70CFE202119482A46FEF707FE7D204D
:102BE000C600174F3846294632462B46FEF7DEFE12
:102BF0003846214632462B46FEF7D8FE022138469B
:102C000032462B46FEF7D2FE0321384632462B468B
:102C1000FEF7CCFE0421384632462B46FEF7C6FEB0
:102C20000521384632462B46FEF7C0FE009801B01B
:102C3000F0BDC0461400C0A71500E0A7160040E68E
:102C400000000440F0B583B00024048144818481F5
:102C5000C4810482448206C003737C4908380D682D
:102C6000202200921543082295430D600D682D0720
:102C7000FCD55B061B0E01938B600E681643342354
:102C80009E430E600E683607FCD5CE68F6B2182E4D
:102C900015D16B268E600E6816439E430E600E683B
:102CA0003607FCD5CE68282E09D180268E600E68A6
:102CB00016439E430E600E683607FCD5CE680C683E
:102CC000182634432427BC430C60614C0294029CB8
:102CD000651E0295002CFAD10C68009D2C4394438C
:102CE0000C600C682407FCD5019C8C600C681443B4
:102CF0009C430C600C682407FCD5CC68E4B2182C0B
:102D000015D16B248C600C6814439C430C600C68D8
:102D10002407FCD5CC68282C09D109248C600C68C8
:102D200014439C430C600C682407FCD5CC680C68E9
:102D30003443BC430C600C682C4394430C600C6817
:102D40002407FCD5019C8C600C6814439C430C60E8
:102D50000C682407FCD5CC68E4B2182C14D11B24D1
:102D60008C600C6814439C430C600C682407FCD5F1
:102D7000CC68282C08D18E600C6814439C430C60EE
:102D80000C682407FCD5CC680C683443BC430C6049
:102D90000C682C4394430C600C682407FCD5019C00
:102DA0008C600C6814439C430C600C682407FCD5B1
:102DB000CC68E4B2182C14D11C248C600C68144329
:102DC0009C430C600C682407FCD5CC68282C08D1E7
:102DD0008E600C6814439C430C600C682407FCD57F
:102DE000CC680C683443BC430C600C682C4394439F
:102DF0000C600C682407FCD5019C8C600C681443A3
:102E00009C430C600C682407FCD5CC68E4B2182CF9
:102E100015D11A248C600C6814439C430C600C6818
:102E20002407FCD5CC68282C09D103248C600C68BD
:102E300014439C430C600A681207FCD5CA680A68F0
:102E40003243BA430A6003B0F0BDC04600000240FE
:102E5000400D0300F0B591B005467820285C0027AE
:102E6000A52800D031E110957835AA7869788818BE
:102E7000EB78C0182C790B9400196C790C9400191C
:102E8000AC7909940019EC790A940419287A241869
:102E90006E7A0696A619AC7A07943619EC7A0894DD
:102EA00036192C7B34196E7BA4195B3CE4B2AD7BE4
:102EB000A54200D009E1109F3C46203402943D46D3
:102EC0005835DB090493A3700123059316461E4071
:102ED0000396FE779306DB0F0F932371D306DB0F68
:102EE0000E93E3709307DB0FBB771207D20F3A778D
:102EF000064638462C782A70AF780D97AB70FA39B1
:102F00004F424F41477769786F70A21A541EA24111
:102F10002A740D98C21A531E9A41AA74C91B4A1EDC
:102F20009141697403200D9006403046FEF7B6F9D2
:102F30008721CC052146019402F062FB06460698E3
:102F4000FEF7ACF90146304602F0C0FAFEF77AF817
:102F50005F4A604BFDF752FFFDF742FB109FB861DF
:102F60000D9E07983040FEF799F9214602F048FB84
:102F700004460898FEF792F90146204602F0A6FAA8
:102F8000FEF760F80024544B2246FDF7E3FC534B58
:102F90002246FDF733FFFDF723FB786109983040A7
:102FA000FEF77CF9019F394602F02AFB06460A9893
:102FB000FEF774F90146304602F088FAFEF742F84F
:102FC0002246454BFDF7C6FC2246444BFDF716FF53
:102FD000FDF706FB109908610B980D990840FEF764
:102FE0005DF9394602F00CFB06460C98FEF756F9DF
:102FF0000146304602F06AFAFEF724F82246364BC4
:10300000FDF7A8FC2246354BFDF7F8FEFDF7E8FA80
:103010001099C860EF780398E87029790A91029EA8
:1030200032782A7169790B9174786C71A9790C9155
:10303000049BAB71E9790D910E99E971297A109190
:103040000F9929723F1A791E8F41EF74059F0A98D4
:10305000801A411E884128750B98001B411E88412B
:1030600068750C98C01A411E8841A8750E980D9974
:10307000081A411E8841E8750F981099081A411ED8
:10308000884128767079697A091A4A1E91416976D1
:103090006872B079A97A091A4A1E9141A976A87274
:1030A000F079E97A091A4A1E9141E976E872307A94
:1030B000297B091A4A1E914129772873707A697B06
:1030C000091A4A1E914169776873384611B0F0BDFC
:1030D0007E411FEDFEFF4F3F000080C00000603FBB
:1030E000F0B585B006467F4804687F4800687F4990
:1030F000002204920A607E4F072139623968012557
:10310000294339607B49081A7D220092D20002923D
:10311000504302F0ABF8314654310191324631460A
:1031200078313B68DB07FCD13B69049B3B623B6821
:103130002B433B60029B5C43001903903868C00737
:10314000FCD13869694E35600E2303400E2B1446BE
:10315000039B00D1CCE1207A002800D1CCE0236D84
:103160000022022B104600DC581C20652018542336
:10317000C05C326025223A623A682A433A603A6873
:10318000D207FCD13A693862386828433860386819
:10319000C007FCD138693560002232606120386296
:1031A0003868284338603868C007FCD138693A620B
:1031B0003868284338603868C007FCD1386908701F
:1031C0003A623868284338603868C007FCD13869EB
:1031D00048703A623868284338603868C007FCD1C4
:1031E000386988703A623868284338603868C007A0
:1031F000FCD13869C8703A6238682843386038684A
:10320000C007FCD1386908713A62386828433860D1
:103210003868C007FCD1386948713A623868284379
:1032200038603868C007FCD1386988713A623868FC
:10323000284338603868C007FCD13869C8713A62E1
:103240003868284338603868C007FCD1386908728C
:103250003A623868284338603868C007FCD138695A
:1032600048723A623868284338603868C007FCD131
:10327000386988723A623868284338603868C0070D
:10328000FCD13869C8723A623868284338603868B7
:10329000C007FCD1386908733A623868284338603F
:1032A0003868C007FCD13869487304923A623868BC
:1032B000284338603868C007FCD1386988733560A6
:1032C0002046FFF7C7FD0028039B00D110E1002036
:1032D000E36363632572216D6064A164E064049517
:1032E00006E1C0467400002018E000E004420050EF
:1032F0000000034050C300000022326061203862A9
:103300003B68012003433B603B68DB07FCD13B6922
:103310003A623B6803433B603B68DB07FCD13B6997
:103320000B703A623B6803433B603B68DB07FCD1B0
:103330003B694B703A623B6803433B603B68DB0789
:10334000FCD13B698B703A623B6803433B603B684E
:10335000DB07FCD13B69CB703A623B6803433B60BF
:103360003B68DB07FCD13B690B713A623B68034366
:103370003B603B68DB07FCD13B694B713A623B68C1
:1033800003433B603B68DB07FCD13B698B713A62CE
:103390003B6803433B603B68DB07FCD13B69CB7177
:1033A0003A623B6803433B603B68DB07FCD13B6907
:1033B0000B723A623B6803433B603B68DB07FCD11E
:1033C0003B694B723A623B6803433B603B68DB07F7
:1033D000FCD13B698B723A623B6803433B603B68BC
:1033E000DB07FCD13B69CB723A623B6803433B602D
:1033F0003B68DB07FCD13B690B733A623B680343D4
:103400003B603B68DB07FCD13B694B7304923A623B
:103410003B6803433B603B68DB07FCD13B698B7334
:1034200030600B78A42B039B62D1CB88019A138068
:103430000B8953804A78CA738A780A74CA784A74A6
:103440000A798A744A79CA74002232602A233B625C
:103450003B6803433B603B68DB07FCD13B69CB7BAC
:103460003B623B6803433B603B68DB07FCD13B6945
:103470000B7C3B623B6803433B603B68DB07FCD152
:103480003B694B7C3B623B6803433B603B68DB072B
:10349000FCD13B698B7C3B623B6803433B603B68F0
:1034A000DB07FCD13B69C97C39623968014339606B
:1034B0003968C907FCD139693060216D611854231E
:1034C000C95C326025223A623A6802433A603A683F
:1034D000D207FCD13A693962396801433960039BEC
:1034E0003968C907FCD1A363207239693060049040
:1034F000606B191A434A914227D3217A0029049A12
:1035000024D06363E06C002874D0216D0020022970
:10351000024600DC4A1C2265A1185422895C3060F6
:10352000252038623A68012002433A603A68D2079F
:10353000FCD13A6939623968014339603968C90791
:10354000FCD139693060E0641846049AE16C0029C6
:10355000254638D16C6C042C35D8297A002932D014
:10356000181A029988422ED90099890040182649D4
:1035700001F07CFE049A039BA04224D92A6D00200E
:10358000022A01462B4600DC511C196559185422A9
:10359000895C3060252038623A68012002433A6035
:1035A0003A68D207FCD13A69396239680143396017
:1035B0003968C907FCD139693060586C401C5864BF
:1035C0001D46039B049AE86B181A104988420ED3D3
:1035D000287A01280BD1A86B181A0D49884206D306
:1035E000002002212972E86028616861A861104604
:1035F00005B0F0BDA16C216500200229024689DDDD
:1036000089E7C04679370000E40C000041420F0012
:1036100081841E00F0B581B0044606C000304C2104
:10362000FCF7CAFE8720002323542C200F252554A5
:10363000264687363371F370B37073708548036024
:1036400085492A220A622246783222630F680122C3
:1036500017430F600F68FF07FCD10F6937780F62BF
:103660000F6817430F600F68FF07FCD10F69777869
:103670000F620F6817430F600F68FF07FCD10F69D7
:10368000B7780F620F6817430F600F68FF07FCD110
:103690000F69F7780F620F6817430F600F68FF0715
:1036A000FCD10F6936790E620E6816430E600E6803
:1036B000F607FCD10E690260036021260E620E68D7
:1036C00016430E600E68F607FCD10E690B620E6899
:1036D00016430E600E68F607FCD10E6902600360A7
:1036E00022260E620E6816430E600E68F607FCD1A5
:1036F0000E690A620E6816430E600E68F607FCD16A
:103700000E690260036026260E620E6816430E6084
:103710000E68F607FCD10E690A620E6816430E6049
:103720000E68F607FCD10E690260036031260E6256
:103730000E6816430E600E68F607FCD10E690D6226
:103740000D6815430D600D68ED07FCD10D69026031
:10375000036024250D620D6815430D600D68ED07AB
:10376000FCD10D690B620D6815430D600D68ED0706
:10377000FCD10D690260036023250D620D681543BD
:103780000D600D68ED07FCD10D6903250D620D6814
:1037900015430D600D68ED07FCD10D6902600360F3
:1037A0003D250D620D6815430D600D68ED07FCD1D8
:1037B0000D6920250D620E6816430E600E68F6072F
:1037C000FCD10E6902600360FD260E620E6816438E
:1037D0000E600E68F607FCD10E690B620E68164388
:1037E0000E600E68F607FCD10E6902600360E226E7
:1037F0000E620E6816430E600E68F607FCD10E6965
:103800000260036025260E620E6816430E600E6885
:10381000F607FCD10E690B620E6816430E600E6847
:10382000F607FCD10E69026003600D620B6813435A
:103830000B600B68DB07FCD10B698F230B620B68F5
:1038400013430B600B68DB07FCD10969026020465B
:1038500001B0F0BD0442005000000340F0B581B05B
:103860000D460E6800243046214601F01DFE00285A
:10387000204609D17F20C7053046394601F007FEB2
:103880000028304600D13846314901F0B9FEFDF735
:10389000B3FC0346E14802212E4AFEF787F86E6822
:1038A0003046214601F000FE0028204609D17F2045
:1038B000C7053046394601F0EAFD0028304600D100
:1038C0003846234901F09CFEFDF796FC0346032190
:1038D000D248204AFEF76AF8AE683046214601F029
:1038E000E3FD0028204609D17F20C7053046394630
:1038F00001F0CDFD0028304600D13846144901F0D2
:103900007FFEFDF779FC03460421C448114AFEF707
:103910004DF8ED682846214601F0C6FD002809D182
:103920007F20C6052846314601F0B1FD00282C460F
:1039300000D134460649204601F062FEFDF75CFCEA
:1039400003460021B548034AFEF730F801B0F0BD48
:103950000000C84230750000F0B587B00690924C68
:1039600059262660162525608827276020680028AC
:10397000F6D001200590C0048C49FDF7E3FD8C488A
:1039800081680F2291438160016802220A43052168
:103990008A430260FEF7A8F900222260854802608F
:1039A000854886494160FF210906854803688B43A5
:1039B00003200290810759188148016004927E48D3
:1039C00082600721039101607E48FDF7ADFD0298FA
:1039D00080037D494860E12041027C48FEF7D6F92A
:1039E00026602560276020680028F9D07848FDF718
:1039F0009BFDC72002040C217548FDF7F7FE754AB0
:103A00001068059B18431060049A22600699881C70
:103A1000486018026F4B59680143596018462038B6
:103A2000802302901146FDF775FD0598C002694A92
:103A3000116801431160114608690007FCD402981F
:103A4000016865480840FDF729FCFDF7FBFA0246CE
:103A50000B4662486249FCF7ADFF624B049AFDF7E2
:103A6000CDF9FCF7BDFD069988605F48FDF75CFD68
:103A7000554B18685D4908401860059801030246D7
:103A8000186802910843186018685949084018607E
:103A90005103186801910843186056485649FDF7CC
:103AA0006DFF494B18460C380168016003994903C2
:103AB00002680A4302609868986050488038022182
:103AC000059AFDF7B5FE4E4804210391049AFDF7CF
:103AD000AFFE4C48FDF728FD10214A48059AFDF736
:103AE00085FE49480090494808230499039AFEF747
:103AF00088F84648FEF780F8049844490862069A18
:103B00001046103011460C316823FFF79BF80699D8
:103B100008460D3088623948C8624021059AFDF791
:103B200087FE3B480499016006983030FFF738F86B
:103B300006982830039026602560276020680028BA
:103B4000F9D0214B181F0168294A1140019A1143ED
:103B500001600168254A1140029A11430160083B47
:103B600018682C490140059A100708181860186851
:103B70002949014090060818186004982060274DD4
:103B80001D2628463146FEF70FF828463146FEF737
:103B900013F8069C2046343003992246FFF73AFD7D
:103BA000204607B0F0BDC0460001005080F0FA0288
:103BB000100200507400002010E000E04FC300002D
:103BC00020ED00E0113D80A73C00005000001540B2
:103BD0001CFE23A620000E40FF030000D7A3703D6B
:103BE0000AD7F33F0000104008000080EFEFFFFF0E
:103BF000DFDFFFFF00000240801A06008040005017
:103C0000404100500C0040A680841E00000003408C
:103C100058420050EFEFFFEFFBFBFFFB00000440BA
:103C2000F0B585B0039302920F46044600683F2129
:103C30000906019101F0E4FCFDF704FA05460E4681
:103C40003846FDF7FFF9002204921C4BFDF7D6F829
:103C50002A463346FCF77EFEFCF7C2FC2060606813
:103C6000019F394601F0CCFCFDF7ECF905460E4604
:103C70000298FDF7E7F9049A104BFDF7BFF82A46C2
:103C80003346FCF767FEFCF7ABFC6060A068394682
:103C900001F0B6FCFDF7D6F905460E460398FDF790
:103CA000D1F9049A054BFDF7A9F82A463346FCF7EB
:103CB00051FEFCF795FCA06005B0F0BD0000E03FB0
:103CC000F0B583B0029301920F4604460068224982
:103CD00001F096FCFDF7B6F906460D463846FDF7AD
:103CE000B1F900271D4B3A46FDF788F832462B46BE
:103CF000FCF730FEFCF774FC20606068164901F0A8
:103D00007FFCFDF79FF905460E460198FDF79AF9ED
:103D10003A46124BFDF772F82A463346FCF71AFE74
:103D2000FCF75EFC6060A0680B4901F069FCFDF7E0
:103D300089F905460E460298FDF784F93A46074B85
:103D4000FDF75CF82A463346FCF704FEFCF748FC16
:103D5000A06003B0F0BDC046EE7C7F3F4062603F94
:103D6000F0B595B0FC49149100681290FB49002011
:103D700000900190029007461090039112AC06212A
:103D8000119131260896204632463346FEF784F9D3
:103D9000A52006904500009501950297EF480390F5
:103DA0000327204639460F9732463346FEF774F90B
:103DB0000095019510980290E848039020463946F6
:103DC00032463346FEF768F900950195109E02963B
:103DD000E24F0397204611992A462B46FEF75CF9DD
:103DE0002A460495243A0792009201A8C4C02046AE
:103DF0000F9F39461346FEF74FF9443D0095019554
:103E00000296FC480390204626460E9439462A46E0
:103E10002B462C46FEF740F90420099041250094DA
:103E20000C9401950290F34803901221C42330466C
:103E3000069F3A461E460A93FEF72EF90094019516
:103E4000109C0294EB4803900E9811993A46334621
:103E5000FEF722F9009501950294E64F03970E9C18
:103E6000204611992A462B46FEF716F902200D909E
:103E7000049E009601960290039720460F9F3946B4
:103E80002A46109C2346FEF707F9009601960D98E6
:103E90000290D84803900E9839462A462346FEF7EA
:103EA000FBF8009601960D9E0296D24803900E9F55
:103EB000384611992A460A9BFEF7EEF807980090BB
:103EC00001900296CB48039038460F9C21462A4623
:103ED000109E3346FEF7E0F80C9800900190029691
:103EE000C4480390384621462A463346FEF7D4F8A4
:103EF0006E200B90009007980190099F0297BD4893
:103F000003900E9C20461199069E32460A9D2B4630
:103F1000FEF7C2F80B9800900C9801900297B548F4
:103F2000039020460F9F394632462B46FEF7B4F8E1
:103F3000012005900B9E00960C9D01950290AD48C6
:103F4000039020463946069A0A9F3B46FEF7A4F89E
:103F50000095019609980290A64803902046119E6C
:103F60003146069C22463B46FEF796F800950194A2
:103F70000D9F02979F4803900E9C204631460B9D53
:103F80002A460A9BFEF788F8109B0093019302973C
:103F90009848039020460F9E31462A46FEF77CF84B
:103FA0000A98009001900346029792480390204699
:103FB00031462A46FEF770F8049D00950195029758
:103FC0008C480390204631460B9A2B46FEF764F846
:103FD00000950195029787480390204631460B9C37
:103FE00022462B46FEF758F80C9800A9A1C181483B
:103FF00003900E9F3846314622460A9BFEF74CF846
:1040000000950195109C02947A48039038463146F9
:104010000B9A2B46FEF740F80095019502947548DF
:10402000039038463146089A2B46FEF735F800953E
:10403000019502946F4C0394384631460B9A2B46F7
:10404000FEF72AF80C98009001950D9802900394C1
:104050002B466E330B9325270A970E9C2046119909
:104060003A46FEF719F82E461336009601960D983B
:1040700002906048039020460F993A463346FEF777
:104080000BF80C98009001960598029059480390FF
:1040900020460F993A460B9C2346FDF7FDFF0096FC
:1040A000019709980290534803900E9F3846119942
:1040B00022460C9C2346FDF7EFFF009401960D9CD1
:1040C00002944C4803903846119E31460A9F3A4666
:1040D0000B9BFDF7E1FF109800900190029445487A
:1040E00003900E9C204631463A46109BFDF7D4FFC4
:1040F000009501950D9802903E4803902046274672
:104100000F9E31460A9A2B46FDF7C6FF0095019592
:104110000D9C029437480390384631460A9E324639
:104120002B46FDF7B9FF0B9800900195029431489A
:104130000390AF230C933C463846119F39463246D4
:10414000FDF7AAFF00950195109802902948039069
:104150002046394604E0C046A08601000AD7233C29
:104160003E460A9A2B46FDF797FF089F0097019558
:10417000099D02951F480390204631460C9E324609
:104180000B9BFDF789FF0097079F01970295194840
:10419000039020460F9932460B9D2B46FDF77CFF7E
:1041A00008980090019705980290124803902046C5
:1041B0000F9932462B46FDF76FFF0097089F019736
:1041C000099802900B4803902046119932462B46DD
:1041D000FDF762FF0798009001960D980290054840
:1041E0000390204611993A462B46FDF755FF15B02E
:1041F000F0BDC0460AD7233CF0B599B01B491791D2
:104200000068159015AD149514A800F0EDFE18493E
:1042100000248320400000900F90019002940391AD
:104220000C21622228461346FDF736FF114D02216C
:10423000114E284632462346FDF7B8FB0321284697
:1042400032462346FDF7B2FB042128463246234678
:10425000FDF7ACFB2846214632462346FDF7A6FB78
:104260001E21179810914843189007E0816C0000B8
:104270000AD7233C00000440307500001898411E06
:1042800018910028FAD1C42000900D90019002945A
:104290001248039015A80C2152221346FDF7FCFE8C
:1042A0000221284632462346FDF780FB032128469B
:1042B00032462346FDF77AFB042128463246234640
:1042C000FDF774FB2846214632462346FDF76EFB78
:1042D000179810994843189002E0C0460AD7233C2B
:1042E0001898411E18910028FAD1A520009001903D
:1042F00002941348039015A80C2141220E921346F4
:10430000FDF7CAFE0221284632462346FDF74EFB42
:104310000321284632462346FDF748FB0421284660
:1043200032462346FDF742FB2846214632462346C5
:10433000FDF73CFB179810994843189002E0C046DF
:104340000AD7233C1898411E18910028FAD10F9DD6
:104350002E46B2360096019602945048039015A856
:104360000C900C275722394613460B92FDF794FE0A
:104370002846E83000900890019002944748039046
:1043800062220C9839460A971346FDF785FECC3514
:1043900000950195029441480390062109915C2201
:1043A0000C9D28461346FDF777FE00960196029471
:1043B0003A4E0396284639460B9A1346FDF76CFE93
:1043C0000D98009001A951C10821522228462E467D
:1043D0000D4606911346FDF75FFE0F9F38464430A9
:1043E00000900D90019002942C4803908322304657
:1043F00029461346FDF750FE3E468236009601964A
:104400000294264F0397A5220C9D28460699134631
:104410000792FDF741FE37200001009001A991C1EC
:10442000AF2228460A991346FDF736FE0F985730FB
:1044300000900A9001A991C193222846099F39460C
:104440001346FDF729FE00960B9601960294134839
:10445000039028463946079A1346FDF71DFE0221B0
:104460000F4D28460F4E32462346FDF79FFA032193
:10447000284632462346FDF799FA0421284632465B
:104480002346FDF793FA2846214632462346FDF798
:104490008DFA179810994843189005E00AD7233CE5
:1044A00000000440307500001898411E1891002843
:1044B000FAD10D9800900190029426480390074687
:1044C00015AD0C210C91832228461346FDF7E4FD1F
:1044D0000F9E00960196029403970627DC22284639
:1044E00039461346FDF7D8FD203600960996019609
:1044F0000294184E0396F722284639461346FDF7D4
:10450000CBFD0898009001A951C1622228460C9960
:104510001346FDF7C1FD02210F4D28460F4E3246CE
:104520002346FDF743FA0321284632462346FDF78A
:104530003DFA0421284632462346FDF737FA28463D
:10454000214632462346FDF731FA17981099484321
:10455000189005E00AD7233C0000044030750000A5
:104560001898411E18910028FAD10E9A00920192D3
:104570000294624D039515AE0C2106913046134608
:10458000FDF78AFD0B98009001A931C1062730463E
:104590003946079722462346FDF77EFD0F986C307B
:1045A0000890009001A931C1622230463946134675
:1045B0000C92FDF771FD0A98009001A931C13046B7
:1045C000394622462346FDF767FD0F9D313500959C
:1045D00001950294494803903046394622462346C5
:1045E000FDF75AFD009501950294444803908322FB
:1045F00030463946174605921346FDF74DFD0D9896
:104600000090019002943D480390304607993A4645
:104610003B46FDF741FD139613A800F069FB0E9A87
:10462000009201920294354F039730460699134643
:10463000FDF732FD0B98009001A991C13046079F0C
:10464000394622462346FDF727FD08980090019041
:1046500002942A480390304639460C9A1346FDF7D7
:104660001BFD0A9800900190029424480390304664
:10467000394622462346FDF70FFD00950195029429
:104680001E4803903046394622462346FDF704FD76
:104690000095049501950294184D039530463946CE
:1046A0000C9A1346FDF7F8FC0D98009001A931C152
:1046B00030463946059A1346FDF7EEFC0221104DAF
:1046C0002846104E32462346FDF770F9032128464E
:1046D00032462346FDF76AF904212846324623462E
:1046E000FDF764F92846214632462346FDF75EF978
:1046F000179810994843189006E0C0460AD7233C03
:1047000000000440307500001898411E18910028E0
:10471000FAD1624803900294614D0195009515AE5F
:104720000C210791C42730463A463B46FDF7B4FCBE
:104730000095019502945948039006210691304650
:104740003A463B46FDF7A8FC009501950294534874
:1047500003903046079D29463A463B46FDF79CFCB0
:104760000C9F0097019702944C48039030462946CD
:104770003A463B46FDF790FC0E9A00920192029455
:1047800046480390304629461346FDF785FC0B98B2
:10479000009001900294414803903046069D2946BE
:1047A00022462346FDF778FC089800900190029479
:1047B0003A480390304629463A463B46FDF76CFCA2
:1047C0000A98009001900294FB48039030463746C7
:1047D000059629462E4622462346FDF75DFC049D9C
:1047E000009501950294F4480390384631462246DC
:1047F0002346FDF751FC009501950294EE48039085
:104800008327059831463A463B46FDF745FC0D980F
:10481000009001900294E8480390059E3046069966
:104820003A463B46FDF738FC13A800F061FA0E9AB1
:10483000009201920294E04803903046079F394667
:104840001346FDF729FC009501950294DA48039080
:104850006822304639461346FDF71EFC0221D74D2B
:104860002846D74E32462346FDF7A0F803212846B6
:1048700032462346FDF79AF804212846324623465D
:10488000FDF794F82846214632462346FDF78EF878
:10489000179810994843189004E0C0460AD7233C63
:1048A0000B0200001898411E18910028FAD10998AF
:1048B000009001900294C048039015A80C21E922B1
:1048C0001346FDF7E9FB0221284632462346FDF751
:1048D0006DF80321284632462346FDF767F8042188
:1048E000284632462346FDF761F8284621463246DF
:1048F0002346FDF75BF817981099484318901898CD
:10490000411E18910028FAD10F980090019002944E
:10491000A948039015A80C2183221346FDF7BCFB80
:104920000221284632462346FDF740F80321284657
:1049300032462346FDF73AF80421284632462346FC
:10494000FDF734F82846214632462346FDF72EF877
:1049500017981099484318901898411E18910028EC
:10496000FAD10C9E00960196029493480390074654
:1049700015AD06210B91284632463346FDF78CFBD8
:1049800000960196029403970C2728463946324632
:104990003346FDF781FB0E9A0092019202948648FD
:1049A0000390284639461346FDF776FB129512A868
:1049B00000F012FA119511A800F0A0FA0F9E0096CF
:1049C000019602947C480390342728460B993A4676
:1049D0003B46FDF761FB009601960294FD4803906B
:1049E00028460B993A463B46FDF756FB0221734D8C
:1049F0002846734E32462346FCF7D8FF032128464B
:104A000032462346FCF7D2FF04212846324623468D
:104A1000FCF7CCFF2846214632462346FCF7C6FF6A
:104A200017981099484318901898411E189100281B
:104A3000FAD10F98009001900294E648039015A8CF
:104A400006214E221346FDF727FB02212846324657
:104A50002346FCF7ABFF0321284632462346FCF7EA
:104A6000A5FF0421284632462346FCF79FFF28462F
:104A7000214632462346FCF799FF17981099484380
:104A800018901898411E18910028FAD10F9800909C
:104A900001900294CF480390074615AD062628469C
:104AA000314622462346FDF7F7FA0998009001A9FE
:104AB00091C16827284631463A463B46FDF7ECFA55
:104AC0000D98009001900294C24803902846314608
:104AD0003A463B46FDF7E0FA0C9A009201920294A6
:104AE000BC4803900C2128461346FDF7D5FA022155
:104AF000324D2846324E32462346FCF757FF0321FB
:104B0000284632462346FCF751FF04212846324608
:104B10002346FCF74BFF2846214632462346FCF746
:104B200045FF17981099414318911898411E189104
:104B30000028FAD10E9A009201920294EE48039056
:104B400015A806211346FDF7A7FA0221284632468A
:104B50002346FCF72BFF0321284632462346FCF769
:104B600025FF0421284632462346FCF71FFF28462E
:104B7000214632462346FCF719FF3C201799414352
:104B800018911898411E18910028FAD131220092EC
:104B900001920294D848039015A80C211346FDF702
:104BA0007BFA12A800F018F911A800F0A7F914A8D0
:104BB00000F01AFA19B0F0BD0AD7233C00000440F7
:104BC00030750000F0B583B007460668306C454D7F
:104BD000294600F015FDB96800F06AFD0146F46C45
:104BE00038462030FDF71AFF706C294600F008FDAA
:104BF000F96800F05DFD014638464030FDF70EFFD4
:104C0000B06C294600F0FCFC396900F051FD01460A
:104C100038466030FDF702FF3E6B204625463146A0
:104C200000F046FD02903C6D214600F04FFC396FCC
:104C3000019100F03DFD802178502846314600F07A
:104C400045FC00902146254600F032FD019E31468C
:104C500000F02EFD3C468034E0600098294600F0CC
:104C600035FC314600F032FCA0600298294600F085
:104C70001FFD314600F02AFC60603D683C20285C46
:104C800002280ED1002038633865386278623867B0
:104C9000386478643866786620606060A060E060A0
:104CA0001CE0E86C104900F0DCFB002816D1012064
:104CB000C607286CB0430D4900F0D3FB00280DD186
:104CC000686CB043094900F0CCFB002806D1A86C01
:104CD000B043064900F0C5FB0028D3D0012003B043
:104CE000F0BDC0460000B4436F12833ACDCC4C3EB9
:104CF000F0B587B0014600680D460691B74900241B
:104D00000094019402940391062657270497314694
:104D100005963A463B46FDF7BFF92868D021009139
:104D200001910294AD49039131463A463B46FDF765
:104D3000B3F9286883256E003746B237009701978C
:104D40000294A6490391059922462346FDF7A4F94A
:104D500006980068009601960294A049039105996F
:104D60002A462B46FDF798F90698006800940194AE
:104D700002949A49039105992A462B46FDF78CF92E
:104D80000698006800970197029494490391059F43
:104D900039462A462B46FDF77FF9069800680096AB
:104DA000019602948D4903913946049D2A462B466B
:104DB000FDF772F906980068203600960196029475
:104DC0008649039139462A462B46FDF765F907B017
:104DD000F0BDC0460AD7233CF0B589B0054600684F
:104DE0007E4A002483214E0000960196029403928D
:104DF0000621069134273A463B46FDF74DF92868CF
:104E000000960596019602947449039106993A46D4
:104E10003B46FDF741F906952E68714D0221714F11
:104E200028463A462346FCF7C1FD032128463A4668
:104E30002346FCF7BBFD042128463A462346FCF7EF
:104E4000B5FD284621463A462346FCF7AFFDB0683B
:104E50001E26704307900798411E07910028FAD13B
:104E6000069D28680599009101910294ED490391EE
:104E700006214E221346FDF70FF9286804900221FF
:104E8000E94D28463A462346FCF790FD0321284683
:104E90003A462346FCF78AFD042128463A46234633
:104EA000FCF784FD284621463A462346FCF77EFD62
:104EB00004988068464308960898411E0891002887
:104EC000FAD1069D2868059F009701970294D54E58
:104ED0000396062122462346FDF7DEF82868203790
:104EE00000970197029403960C2168221346FDF760
:104EF000D3F809B0F0BDC0460AD7233CF0B587B05F
:104F000006460068C74A002583214C0021464431EB
:104F100000910191029503920621059162273A467C
:104F20003B46FDF7B9F83068009401940295BD49FD
:104F3000039105993A463B46FDF7AEF80596306871
:104F40000490B94E0221B94F30463A462B46FCF741
:104F50002DFD032130463A462B46FCF727FD042160
:104F600030463A462B46FCF721FD304629463A4664
:104F70002B46FCF71BFD049880681E2141430691D7
:104F80000698411E06910028FAD1059908680E4638
:104F9000B234009401940295A24F03970621412256
:104FA0001346FDF779F830683746C424009401941D
:104FB00002959C4903910C2631462A462B46FDF763
:104FC0006BF8386800940194029596490391312258
:104FD00031461346FDF760F807B0F0BD0AD7233C11
:104FE0000000044030750000F0B589B00546006847
:104FF0008C4A0024A5214E0000960196029403924B
:105000000621079149273A463B46FDF745F82868AF
:1050100000960696019602948249039107993A46B2
:105020003B46FDF739F807952E687F4D02217F4FEB
:1050300028463A462346FCF7B9FC032128463A465F
:105040002346FCF7B3FC042128463A462346FCF7E6
:10505000ADFC284621463A462346FCF7A7FCB0683B
:105060001E27784308900898411E08910028FAD11D
:10507000079D28680699009101910294694903915E
:10508000062149221346FDF707F8286805900221FA
:10509000654D2846654E32462346FCF787FC0321C2
:1050A000284632462346FCF781FC04212846324636
:1050B0002346FCF77BFC2846214632462346FCF774
:1050C00075FC059880680597784308900898411EFC
:1050D00008910028FAD1079D2868069F394644396F
:1050E00089B20091019102944E4903910626412212
:1050F00031461346FCF7D0FF2868009701970294C9
:1051000048490391492231461346FCF7C5FF2F68F1
:105110000221454D2846454E32462346FCF746FCC3
:105120000321284632462346FCF740FC042128464A
:1051300032462346FCF73AFC2846214632462346AF
:10514000FCF734FCB8680599414308910898411E62
:1051500008910028FAD1079D286806993E310091F0
:10516000019102942F4903910C2162221346FCF70E
:1051700093FF2D6802212C4E30462C4F3A46234691
:10518000FCF714FC032130463A462346FCF70EFC9C
:10519000042130463A462346FCF708FC30462146B7
:1051A0003A462346FCF702FCA8683C256843089071
:1051B0000898411E08910028FAD1079E3068C42142
:1051C000009101910294174903910C213122134659
:1051D000FCF762FF306807900221134F3846134EE8
:1051E00032462346FCF7E2FB03213846324623468B
:1051F000FCF7DCFB0421384632462346FCF7D6FB9D
:105200003846214632462346FCF7D0FB0798806893
:10521000454308950898411E08910028FAD109B025
:10522000F0BDC0460AD7233C0000044030750000A2
:105230000020C043704700000121CA0506498B6960
:105240001342FCD108600A2804D18B691342FCD1B7
:105250000D220A607047C0460000154080B5024824
:10526000FDF716F980BDC0467800002043088B4248
:105270001AD3002203098B4279D3030A8B425ED3EF
:10528000030B8B4242D3030C8B4227D30902FF222C
:1052900012BA030C8B4202D31212090203D0030B81
:1052A0008B4233D31AE0D3E0411A8041401C70474F
:1052B00003460B4371D443088B42F5D30022030904
:1052C0008B4254D3030A8B4239D3030B8B421DD339
:1052D000030C8B4202D394466EE0090AC30B8B4247
:1052E00001D3CB03C01A5241830B8B4201D38B03F2
:1052F000C01A5241430B8B4201D34B03C01A524197
:10530000030B8B4201D30B03C01A5241C30A8B42D9
:1053100001D3CB02C01A5241830A8B4201D38B02C4
:10532000C01A5241430A8B4201D34B02C01A524168
:10533000030A8B4201D30B02C01A5241CDD2C309DA
:105340008B4201D3CB01C01A524183098B4201D356
:105350008B01C01A524143098B4201D34B01C01A41
:10536000524103098B4201D30B01C01A5241C308B9
:105370008B4201D3CB00C01A524183088B4201D328
:105380008B00C01A524143088B4201D34B00C01A14
:105390005241411A524110007047CA0F00D0494291
:1053A000031000D34042534000229C4603098B4225
:1053B0002DD3030A8B4212D38901FC2212BA030AAD
:1053C0008B420CD3890192118B4208D3890192112F
:1053D0008B4204D3890137D0921100E08909C309B7
:1053E0008B4201D3CB01C01A524183098B4201D3B6
:1053F0008B01C01A524143098B4201D34B01C01AA1
:10540000524103098B4201D30B01C01A5241C30818
:105410008B4201D3CB00C01A524183088B4201D387
:105420008B00C01A5241D9D243088B4201D34B00A2
:10543000C01A5241411A00D20146524110466346F9
:105440005B1000D34042704763465B1000D340427C
:1054500001B50021004201D0C9430846C046C046FC
:1054600002BD10B500F078F8EFF30080800001D5A0
:10547000012010BD002010BD10B500F06DF8EFF355
:1054800000804000800F012800D0002010BD10B522
:1054900000F08CF8EFF300804000800F012801D06D
:1054A000012010BD002010BD10B500F07FF8EFF313
:1054B0000080800001D4012010BD002010BD3038D4
:1054C0000A2801D2012070470020704770B50125DD
:1054D000ED0704004C4020D4441A01D2001B0919E6
:1054E000C60D4B00F2B2FF2A29D01B0E2CD00002B1
:1054F0000C0228432C43D31ADC40051910D2280A89
:1055000002D3401C6D0611D0761EF6058019FF2AC5
:1055100000DA70BDC00DC00570BD694000F0CEF866
:1055200001200543C541521C761CE8E764089C40F5
:10553000C90161408900E7D10124A043E4E71B0EC3
:10554000440200D0034870BD002AFCD1C00FC00740
:1055500070BD00BF0000C07F0123DB0502000A43CD
:105560000DD4DA4203D49A4207D488427047D84215
:1055700014D4D94212D48842704780427047DA422C
:1055800003D59A42F9D5814270475B004200DA4266
:1055900004D24A00DA4201D28142704710B5024A71
:1055A000FBF704FF10BD00BF090013040123DB0556
:1055B00002000A430DD4DA4203D49A4207D4884247
:1055C0007047D84214D4D94212D4884270478042DE
:1055D0007047DA4203D59A42F9D5814270475B00A1
:1055E0004200DA4204D24A00DA4201D281427047D4
:1055F00010B5024AFBF7DAFE10BD00BF0900160421
:1056000070B5420064414B005C41120E39D01B0E54
:1056100038D0FF2A3CD0FF2B3AD0D2187F3A400234
:105620004902400A490A4518ED0106004E43000AA6
:10563000090A48430104731A4019190C4318990FB9
:1056400004D05B08012149075B1A521CD80904D316
:10565000401CF50301D19D0607D0FF2A08D2D505CD
:1056600006D0E4072043401970BD0125A843F4E7A4
:10567000002A01DCE00770BD2402FF202043C005A2
:1056800070BD1B0EFF2A03D0FF2B01D0E00770BDB9
:10569000FF2636064500B54206D84D00B54203D870
:1056A000D218FF2A00D0E7E7004870BD0000C07F95
:1056B00070B50125ED0704004C4022D4441A02D2F3
:1056C0006C40001B0919C60D4B00F2B2FF2A4BD0EB
:1056D0001B0E50D000020C02A8432C43D31ADC400E
:1056E000051B05D5AD0019D36D08761E521E37D0A7
:1056F000F605280A01D2801970BD70416D0603D0ED
:1057000070BD6940FFF7E8FE9C4009026140490016
:1057100001D0401E70BD0124A04370BD6D081DD096
:1057200001202B0C01D12D0410302B0E01D12D02A4
:1057300008302B0F01D12D01001DAB0F01D1AD00A1
:10574000801CEB0F01D16D00401C361A121A6D003F
:10575000680AF5054019012A02DB70BD002070BD02
:10576000C036300AC00770BD1B0E440201D1FF2BAA
:1057700000D1024870BD002AF0D070BD0000C07F8B
:105780003031323334353637383941424344454677
:105790004030580030313233343536373839616271
:1057A0006364656640307800040000080000000073
:1057B00000000002000100001080807F7E7D7C7B65
:1057C0007A7978777676757473727171706F6E6EA0
:1057D0006D6C6C6B6A6A6968686766666564646349
:1057E0006362616160605F5F5E5E5D5D5C5C5B5BD0
:1057F0005A5A59595858575756565555555454533F
:105800005352525251515050504F4F4F4E4E4D4D9A
:105810004D4C4C4C4B4B4B4A4A4A494949484848E5
:105820004747474746464645454544444444434325
:10583000434342424242414141818283848586877B
:1058400088898B8C8D8E8F919293959697999A9C3F
:105850009D9FA0A2A3A5A7A8AAACAEB0B2B3B5B7AE
:10586000B9BCBEC0C2C5C7C9CCCED1D4D7D9DCDF84
:10587000E2E6E9ECF0F3F7FAFE01020204010202AB
:1058800004723020203D20307825780A00723120C3
:10589000203D20307825780A00723220203D2030CB
:1058A0007825780A00723320203D20307825780A48
:1058B00000706320203D20307825780A006C72202B
:1058C000203D20307825780A00723132203D20308A
:1058D0007825780A00707372203D20307825780A88
:1058E000000000000859000000000020080000002F
:1058F000040100001059000008000020D803000037
:10590000200100003DC5FFFF0080510100805101D2
:04000005000001797D
:00000001FF
