:020000040000FA
:1000000030050020F5000000F9000000D9000000D4
:1000100000000000000000000000000000000000E0
:10002000000000000000000000000000FD000000D3
:100030000000000000000000FF000000210B000095
:1000400003010000030100000301000003010000A0
:100050000301000003010000030100000301000090
:100060000301000003010000030100000301000080
:100070000301000003010000030100000301000070
:100080000301000003010000030100000301000060
:100090000301000003010000030100000301000050
:1000A0000301000003010000030100000301000040
:1000B0000301000003010000030100000301000030
:1000C0000448854600F0EAF900F046F80048004789
:1000D000BD1E00003005002004207146084202D0F9
:1000E000EFF3098001E0EFF308807146004A104702
:1000F000D508000003480047FEE7FEE7FEE7FEE7FD
:10010000FEE7FEE7C100000030B50B4601460020C7
:100110002022012409E00D46D5409D4205D31D460D
:100120009540491B2546954040191546521E002D05
:10013000F1DC30BDD2B201E00270401C491EFBD29E
:1001400070470022F6E710B513460A4604461946E2
:10015000FFF7F0FF204610BD70B5054C054D03E0DC
:10016000206800198047241DAC42F9D170BD000001
:100170007429000078290000F8B502464A40D40FDF
:1001800042004B0052085B089A4202D202460846DF
:1001900011464A0023D0C30D4A00DDB2120EAD1A3B
:1001A000202D35DA49020126490AF6058A19002C64
:1001B00000D0524220214F1B1146B9402A4110184D
:1001C000C20D9A4221D0002C17D0012D08DCDA058F
:1001D000801AD20F8019D207DBB200F025F9F8BDE2
:1001E000DA05801A012340001B06C01880185A4205
:1001F0008018CA0F1043490007E04908C20711439D
:10020000DA05801A80194008801800F005F9F8BD59
:1002100061000122511A001BF7E70122D207514069
:10022000AAE70122D2075040A6E7024670B54A402D
:10023000D30FDB0740002DD04A002AD0010E140E48
:10024000000212020919400A520A8418E501044604
:100250005443000A120A2E045043A4194219200CD8
:10026000C543AA18120C0125AD03521C52191204E1
:100270007F39240400D0521C104301D44000491E91
:10028000C2B20C06C0092018401C4008802A02D0C7
:1002900003E0002070BD40084000002900DA002083
:1002A000184370BD70B502464A40D50F40004A0061
:1002B000ED0740085208002814D0002A12D0C40DBF
:1002C000D30D41020120C0055202490A520AE41A24
:1002D000091812187D34914201D3641C00E04900D2
:1002E000002C01DA002070BD0023914201D3891A4D
:1002F0000343400849000028F7D100290AD0914261
:1003000002D10121C90705E0914201D2012101E09A
:100310000121C943E005C018401900F07DF870BD07
:10032000420005D04200120E52428A4201DB0020F8
:100330007047C90508187047C217C10F504010B563
:100340004018CA079623002100F06EF810BD10B5C2
:1003500000229623114600F067F810BDC20F41003D
:1003600040020123400ADB05D207090EC0187F298D
:1003700001DA00207047962903DC9623591AC840F9
:1003800001E096398840002AF4D0404270470000CE
:100390000122D207002800DB101A002900DB511AC5
:1003A000814270470122D207002800DB101A002981
:1003B00000DB511A88427047F0B51FB40646002092
:1003C00082B005464024019100901BE0019922462D
:1003D0000F46304600F084F8049A059B801A994134
:1003E00010D310461946224600F06AF8361A8F419B
:1003F0000197224601200021009F00F061F8381883
:100400004D4100902046641E0028DFDC019B0098CF
:100410002946324607B0F0BD002904DA401C4900E5
:1004200001D140084000704770B40024050C05D18C
:100430001024000402D1002921D01124050E01D17D
:1004400000020834050F01D10001241D850F01D1E0
:100450008000A41C002801DB4000641C002908D097
:1004600020252E1B0D46F540A14000D00121294337
:10047000084301061B1B000ADB1D02D5002070BCCF
:100480007047DB05181880180029F8DA401C49006D
:10049000F5D170BC4008400070470000064C0125B3
:1004A000064E05E0E36807CC2B430C3C984710341C
:1004B000B442F7D3FFF708FE542900007429000066
:1004C00010B5202A04DB0146203A9140002010BDDF
:1004D000914020239C1A0346E3401943904010BDED
:1004E00010B5202A04DB0846203AD040002110BD78
:1004F0000B46D340D0402024A21A9140084319460D
:1005000010BD00000248016AC20111430162704738
:1005100000020050C10F8A00044951184A68C306FE
:10052000DB0E0120984002434A60704700020050F1
:10053000F3B585B00C46FFF7E5FF05980028714834
:10054000016813D0042211430160102000F098F9D3
:100550000120C00403906C480190042002906B4875
:100560006B49201888420ED800271CE089088900B2
:10057000491C0160012000F083F9002003906548C8
:1005800001900220EAE76448634920184942884202
:1005900002D80127640006E06048211840428142E9
:1005A0007BD20327A4000025ED43029E22E03146C2
:1005B0000198FFF7A9FD5A498446411859488142DC
:1005C00017D2534B02215B1C504862464A43401CE1
:1005D0001018984209D8A24201D9101B00E0A01AB5
:1005E000A84202D2050000910BD04F48491C81421D
:1005F000EAD9761C212EDAD900260495F643029D0D
:1006000051E00398B9030143012072028002101ADD
:1006100001430098801E01433A480162042000F023
:100620002FF9791C714331E029460198FFF76CFDE1
:100630003B49844641183B48814233D2344B022126
:100640005B1C324862464A43401C1018984225D829
:10065000A24201D9101B00E0A01AB0421ED2049A97
:1006600006460091904219D10399B803084301212D
:100670006A028902511A08430099891E08432149D8
:100680000862042000F0FCF8791C69430198FFF728
:100690003BFD0099484307B0F0BD06E02248491CE5
:1006A0008142CED96D1C212DBED9059800280FD0CE
:1006B0001E4914480162042000F0E2F81CA0006802
:1006C00000901048016A0013014203D00020E2E7C5
:1006D0001849EEE7080301D50B4800E00D488A03EE
:1006E000D9D40A04920F6B469B5CCA058904D20DCB
:1006F000C90E891C8008921C59435043FFF704FD22
:100700008000C8E70002005000805101FF1E0AFA75
:10071000FFE0F505001BB700800F05FDC08782FED6
:10072000FF95E7FFBF77CC000102000018440800E6
:10073000010202041640000010B500F0F9F901486A
:10074000006810BDF0000020044800688007800F9A
:10075000012801D000207047014870470002005076
:10076000001BB700044800688007800F022801D0F2
:10077000002070470148704700020050001BB7007E
:1007800008B511A0006800901048016A00130142EA
:1007900001D0002008BD080301D50D4800E00D4838
:1007A0008A03F7D40A04920F6B469B5CCA0589043E
:1007B000D20DC90E891C8008921C59435043FFF783
:1007C000A3FC800008BD00000102020400020050EA
:1007D00000805101001BB70008B511A0006800900F
:1007E0001048016A0013014201D0002008BD08032F
:1007F00001D50D4800E00D488A03F7D40A04920F92
:100800006B469B5CCA058904D20DC90E891C800801
:10081000921C59435043FFF777FC800008BD00004D
:10082000010202040002005000805101001BB700C9
:1008300070B5430E1B070DD043009B0F0F4C9B0060
:100840001B191C68C5002D0FC601F60EB540AC4340
:100850000C431C60830A1906090E0DD00103074CD6
:10086000890F8900083409190C688005DBB2C00EB5
:1008700083409C4314430C6070BD00001002005084
:1008800010B504460749084B05E00A46491E002AF0
:1008900001DC002010BDDA6820469043F5D101202C
:1008A00010BD000080F5200000020050F0B50023CC
:1008B00001273C469C400C4208D005685C0003269A
:1008C000A640B5431646A640354305605B1C082B81
:1008D000EFD3F0BD044603A000F0E6F9204601F096
:1008E00053FFFEE7496E2048617264204661756CD3
:1008F000742048616E646C65720A000070B50C4D1E
:10090000044628680A2289005043FFF7FDFB0A21AC
:10091000401DFFF7F9FB401E206121684022114372
:1009200021608100091D2868FFF7EEFB70BD000003
:10093000F0000020FFB5384883B00F46006811462C
:100940000190FFF7E1FB0125344CFF26009029467A
:100950000098FFF7D9FB01210906884212D8011936
:1009600009020E0E032E00D202263146FFF7CCFB01
:1009700001210904884205D8012801D084B205E08C
:10098000012403E06806050E112DE0D331466943CA
:1009900061430198FFF7B8FB761E641EF3B2A4B260
:1009A0000090012D2FD0022D2FD0042D2FD0082DF7
:1009B0002FD003201A490D687A08D200FF269640EE
:1009C000B54393401D430D604B68BA000725954021
:1009D000AB43904003434B608868082340004008C5
:1009E000934018438860039906985518002805D04D
:1009F000611C48436421FFF787FB401E6862EC607E
:100A0000009807B0F0BD0420D4E70020D2E7012011
:100A1000D0E70220CEE70000F0000020FFFF00003A
:100A2000000004400248C2690A43C26170470000E6
:100A30004000044030B50022104601242346834084
:100A40000B4203D085002346AB401A43401C0628C6
:100A5000F4D3024988681043886030BD0000044028
:100A60008168082291438160704710B5029C202B59
:100A700000D10023DB000B431343036001229204E7
:100A8000914201D110218160214600F001F810BD92
:100A900070B5064619480D4641698906890F21D06F
:100AA00040698006800F022823D0FFF745FE0446E8
:100AB000A54200D90546002D1ED029462046FFF745
:100AC00023FB401C4008401EFF2800D9FF2071680E
:100AD000090A09020143716041002046891CFFF7A1
:100AE00013FB70BDFFF730FE0400E1D1FFF73AFEC3
:100AF000DDE7FFF745FEDAE7002070BD0002005099
:100B000006498A691202FCD408600A2804D188695F
:100B10000002FCD40D200860704700000000154062
:100B200002480168491C016070470000E000002095
:100B3000F8B522A00068224E0090316A3013214C93
:100B4000214D014201D0002118E0080301D52046C3
:100B500000E028468A0301D501460FE00A04920FFF
:100B60006B469A5CCB058904DB0DC90E891C800895
:100B70009B1C51435843FFF7C7FA8100134F39605C
:100B800030694007400F12D0022812D0032812D03B
:100B90002046B1690907090F491CFFF7B5FA0C494E
:100BA00078604A108018FFF7AFFAB860F8BD2846A1
:100BB000EFE70846EDE70748EBE700000102020413
:100BC0000002005000805101001BB700EC00002023
:100BD00040420F001027000070B51B4E0D46044622
:100BE0007169002089010322890F2063E260A060FF
:100BF00000291FD001291FD0022901D31348006802
:100C0000B1690905090F491CFFF77EFA0646002D58
:100C100019D0680880192946FFF776FA0C49801E1A
:100C200088420CD9E80080192946FFF76DFA0009BF
:100C3000801E07E00748E3E7FFF7CEFDE0E703216A
:100C400009070843606270BD00020050E800002000
:100C5000FFFF0000001BB70070B50D480B4900688E
:100C60000546FFF7E2FA0B49FFF786FA04460A4900
:100C70002846FFF7DAFA2146FFF714FB7F21C90562
:100C8000FFF7CFFA0549086070BD00000000404042
:100C9000740000200AD7233C0000C040D000002090
:100CA00000210160704700000FB410B503A9044B88
:100CB000044A029800F03AF810BC08BC04B0184787
:100CC0006D170000E4000020FFB581B01C461746F8
:100CD0000E0007D0019D02E02846B047ED192046DE
:100CE000641EF9D2019805B0F0BD02E008C8121FD9
:100CF00008C1002AFAD170477047002001E001C105
:100D0000121F002AFBD1704710B5032304220449A7
:100D10000448FFF7D9FF04480021016010BD00001E
:100D2000A10C000020030020D4000020FFB591B0EA
:100D30000F460546002606E025280AD0149A139986
:100D400090476D1C761C28780028F5D1304615B0E8
:100D5000F0BD002400940121F34A029400E0044312
:100D60006D1C2B780846203B98401042F7D128781C
:100D70002A280ED0022128780246303A092A15D8AE
:100D8000009A0A235A43303A80180C436D1C009095
:100D9000F1E701CF0090002805DA01204003044369
:100DA000009840420090022004436D1C28782E28B1
:100DB00015D10420044368786D1C2A280AD101CF7C
:100DC0006D1C02900BE002990A2251433039401801
:100DD0006D1C02902878014630390929F3D928780A
:100DE0006C2810D006DC4C281AD068280ED06A284F
:100DF00017D104E0742813D07A2812D110E0012012
:100E0000400504430CE00121090501E00321090527
:100E10000C436978814203D10120000524186D1C20
:100E20006D1C287803906E281ED00CDC632831D00E
:100E300004DC00288AD0582811D1B2E064287BD085
:100E400069280CD178E073282DD004DC6F2870D08D
:100E5000702804D1A7E075286CD078286BD0149A3C
:100E600013999047761C62E06002400F022807D079
:100E700003280AD0042838680AD006603F1D56E0CF
:100E80003868F11706604160F8E738680680F5E7D2
:100E90000670F3E73878694608740020487404A89F
:100EA0000390012003E0386803900020C0433F1DF9
:100EB00061070FD5002101E00199491C029A0191B7
:100EC000914213DA8142F7DB019A0399895C002988
:100ED000F2D10BE0002101E00199491C019181420E
:100EE000FADB019A0399895C0029F5D101990098F0
:100EF000139A401A00902146149B00F03BF9019987
:100F00008019461807E0039803990078491C03915B
:100F1000149A139990470198401E0190401CF2D1F9
:100F20002146149B139A009800F014F986196D1C41
:100F300009E741E033E034E00A2000210490059104
:100F40006002410F022905D001CFC2179446032940
:100F500005D007E0FF1DFF08FF0003CF06E000B249
:100F6000C2179446042902D140B2C1178C46002210
:100F70006146944506DA0A460021404291418C467A
:100F80002D2102E0210504D52B216A46117601218D
:100F900003E0E10701D02021F7E7019154E00A20A6
:100FA0000BE0102009E010200490002104200443ED
:100FB00008200591029003E008200021059104908B
:100FC0006002410F022905D001CF00229446032977
:100FD00006D006E0FF1DFF08FF0003CF8C4603E0AC
:100FE00080B2042900D1C0B20021019121072BD584
:100FF0000399702906D0049A1021059B4A401A4390
:1010000005D00EE040216A461176012108E06146D4
:10101000014306D030216A461176039951760221A8
:101020000191049A0821059B4A401A430CD161465C
:10103000014301D1610707D530216A4611760121AC
:1010400001910299491E02910399582904D037A1B0
:1010500003910FA90F910DE039A1F9E76146059BB6
:10106000049AFFF7A9F9039B8C469B5C0F9A521ECA
:101070000F92137061460143F0D10F9807A9081A27
:1010800020300390600704D50120000484430298B7
:1010900001E0012002900399884201DD401A00E03E
:1010A000002041180290019809180098401A0090F9
:1010B000E00306D42146149B139A009800F05AF8D6
:1010C00086190020049008E006A9085C149A139978
:1010D00090470498401C761C049001998842F3DBE9
:1010E000E0030CD52146149B139A009800F042F8B7
:1010F000861904E0149A302013999047761C0299BF
:10110000481E02900029F5DC08E00F980F9900783E
:10111000491C0F91149A13999047761C0399481E05
:1011200003900029F1DCFBE609280100303132335D
:101130003435363738396162636465660000000013
:1011400030313233343536373839414243444546FD
:1011500000000000F8B5044600251E461746880426
:1011600004D405E039462020B0476D1C641EF9D533
:101170002846F8BDFFB50446002581B01E46C803C9
:1011800001D5302700E02027880404D505E0384643
:101190000399B0476D1C641EF9D5284605B0F0BD13
:1011A00070470000002803D0012803D000207047BA
:1011B000024870477F20C005704700006666864081
:1011C000F8B5164F0C227968134E5143144A8A1809
:1011D00039688C001159002802D0124E491C00E0D9
:1011E000491E1151BD6831462859FFF71EF8285194
:1011F0003C68002C04D131466868FFF716F8686037
:1012000078680C21484306494018A100405800283E
:1012100000DA4042F8BD00002EBA683F000000200E
:10122000F8000020CDCC8C3F30B5002207239C1A5B
:101230006418203C855CE47FA54201D0002030BDCD
:10124000521C072AF3DB012030BD0000F0B585B049
:10125000072001F027FB0007400F0026072801D0D8
:10126000022000E0304601273F4D002816D02868B4
:10127000002823D000F05AFB044601F009F80F21A2
:101280003A4801F0FBFA00F0D9F9002806D0EE60E8
:101290002E616868AC61AE60EC61286200F046FBCC
:1012A0000446A8693249201A884233D9296800299E
:1012B00030D0AC612869002826D027E00F212B48C8
:1012C00001F0DCFA29480168A429E7D1264C017E07
:1012D00014342170017F6170018CA170818CE170E8
:1012E0004168009181680191C1680291016903918F
:1012F00040690490684601F0F5FA6868215C252091
:1013000001F0DFFA2F60C9E7286A686000F0C0FFCB
:101310002F611CE02969002919D1E968009105298C
:1013200015D22968002912D07D21C90088420ED922
:10133000FF301049F530FEF7E7FE01460098401CEB
:10134000814204D300F0A4FFE868401CE860E8692B
:101350000949201A884205D90848AF6006604660EE
:101360008660C66005B0F0BD94000020B402002085
:1013700078370000E40C000040420F008C0200208F
:1013800010B559200E4C1622882120602260216061
:101390002368002BF9D001200A49C004FFF7C8F8E0
:1013A000094881690909090181610169C908C90000
:1013B000891C0161FFF7BCFB0020206010BD00000C
:1013C00000010050006CDC0200020050F0B58B4FB1
:1013D0007F267878F60585B0002801D13F263606AD
:1013E00000248748A50040593146FEF71EFF854975
:1013F000641C4851032CF4DB834C01252068002633
:10140000002833D000F012FA00282FD07F4901289D
:1014100010D004281BD003281CD0072800DBA560AF
:101420007B4F052819D006281AD007281BD008287A
:1014300059D01BE0A068002806D00D60A66000F01F
:1014400075FA7449086011E000F08AFAF7E73D7117
:101450000D600BE00D603E7108E000F0FDFE04E061
:1014600000F0ECFE01E000F071FC386000F0E2FFFB
:10147000644F69493868FEF7D8FE6849FEF7D5FE23
:1014800067490968FEF7C9FE39460C3908606249A8
:101490007868FEF7CAFE6149FEF7C7FE60494968F1
:1014A000FEF7BBFE39460C3948605B49B868FEF769
:1014B000BCFE5A49FEF7B9FE59498968FEF7ADFEF0
:1014C00039460C398860002000F006FF012000F04A
:1014D00003FF022000F000FF49485249C0688842DB
:1014E00004DA002708E000F011F9BEE7FEF795FEE8
:1014F0004D49FEF79AFE07464C480068002802D185
:101500004B48874216DA6068002807D000F00EFAD0
:101510006168401A4749884200D966600027F8B2DE
:10152000002101F001F87F1C032FF8DDE660256043
:1015300005B0F0BD344C0020206000F0F7F9606089
:101540003D4C384626683146FEF767FE04906568D4
:101550002946FEF762FEA4682146FEF70DFE0190C3
:1015600031463846FEF708FE06462946FEF755FE88
:101570002146FEF752FE039029460498FEF7FCFD33
:101580002146FEF74AFE009030462946FEF7F4FD5C
:101590002146FEF7F1FD00246E460290A500705929
:1015A000214600F039FE641C7051032CF6DD00204A
:1015B000154F0446F860A500705900F03DFE014645
:1015C000E0B200F0B1FF70590121C907884202D989
:1015D0000020705104E07F21C905884200DD71516F
:1015E0007159F868FEF7C8FD641CF860032CE2DD51
:1015F0000121C943FEF794FEF86099E7C00100207D
:101600008C020020700100203400002058000020CF
:101610005C000020780000200000B44335FA8E3CC6
:10162000FC020020CDCCCC3DE4388E3F9C00002055
:101630006F12833A40420F0028010020F8B52D4C6C
:101640002068A52853D1002108468200A258401CDA
:1016500051180E28F9DBC8B2A16B884247D1254842
:10166000103000F029FE244D28602248183000F088
:1016700023FE68601F48283000F01EFEA860208C02
:10168000616A8007800D4018FEF756FE1B49FEF781
:10169000CCFDE860207B1A4D0006C00FA871A06841
:1016A000C106C90FE9718106C90F29720107C90F67
:1016B00029706168FA2918D0002169708107C90F63
:1016C000C007A970C00FE87000200E4B0E4C0746F3
:1016D00001261F54225C295C8A4200D01E542154EA
:1016E000401C0A28F5DB0120F8BD0121E5E70020B8
:1016F000F8BD0000B40200208C020020F7FF7F3A02
:10170000C0010020A80200209C02002010B500208B
:10171000FFF756FD10BD08B580000090411E0091F6
:1017200001D30846FAE708BD06460024E0B20021CE
:1017300000F0FAFE641C032CF8DD0B4DAF00002412
:101740000CE0FF2000F062FB2846FFF7E4FFFF20DB
:1017500000F056FB2846FFF7DEFF641CB442F0DBC6
:101760003846FFF7D8FFEAE7400D030000B503460F
:10177000FFF7C6F9184600BD30B52A4C21788142E2
:101780004ED007216218203AD27F6254491E0129A7
:10179000F8DA207024492348FFF746FD7F2500280A
:1017A00002D06570032030BD1F491E48C91DFFF7D8
:1017B0003BFD002802D06570042030BD1A4919484D
:1017C0000E31FFF731FD002802D06570012030BDD9
:1017D000154914481531FFF727FD002802D0657020
:1017E000052030BD10490F481C31FFF71DFD0028B2
:1017F00002D06570062030BD0B490A482331FFF73F
:1018000013FD002802D06570072030BD0649054849
:101810002A31FFF709FD002802D06570082030BD8D
:10182000002030BD8C0000202029000070B5394810
:10183000394C0068002867D0384B7D201A68C005F5
:101840005100490881420BDA9D686D006D088542A0
:1018500006DA5D686D006D08854201DA002031E02E
:10186000BF252D06AA4202D89E68AE4206D95E6800
:1018700076007608864201DA012023E03F2636060C
:10188000B24202DC9A68B24206DD5A68520052083F
:10189000824201DA022015E05A68AA4208D9814240
:1018A00006DA9D686D006D08854201DA032009E0C3
:1018B000B24208DD814206DA99684900490881424E
:1018C00001DA0420206000F031F806CC083C914297
:1018D00000D0E060E268801A114A90420FD90029D6
:1018E00004D1104A904201D90C2005E00E4A9042E2
:1018F00004D97F2903D0FF20A06000E0A1606160CF
:10190000A068FFF739FF70BD7F20A06060600020F5
:1019100070BD0000340000207C0000208C020020FC
:10192000A086010040420F0020A107000348806903
:10193000034800687D21C9004843704700E000E08B
:10194000E000002010B5012240210348FEF7AEFF61
:1019500002490020886110BD804000504042005084
:10196000F0B591B0FFF7E2FF0F9005460B900A909B
:1019700000208100574B0CAA5B58401C5350032891
:10198000F7DB8CE00A980A95281A099001D101200A
:10199000099006226946432000F087F900980199D2
:1019A0000002401800B2FEF7C7FC079002980399A6
:1019B0000002401800B2FEF7BFFC0690049805999B
:1019C0000002401800B2FEF7B7FC434E0890307892
:1019D00000F0C2F920464149FEF796FB404881429B
:1019E00001D9012100E000213068C207D20F9142E5
:1019F00001D0401C3060384801780907090F0026E3
:101A00000160B4000CAF06A839590059FEF7CAFCB2
:101A100004D238593349FEF7AFFB385106A839597B
:101A20000059FEF7B5FC04D238592E49FEF7F5FBF4
:101A30003851E0192C4900F0EFF938592B49400092
:101A40004008FEF799FB014606AF385940004008B0
:101A5000FEF7A8FC06D2FFF769FF0B901E48012194
:101A600001600BE00998FEF772FC214900F0FDF9D6
:101A7000024618483959201800F0E1F9761C032E67
:101A8000BFDB7D24E400FFF751FF401BA04203D2DF
:101A90000A20FFF740FEF6E7FFF748FF05460B98E0
:101AA0002C1A1448844205D20F981349281A8842E8
:101AB00000D267E70B98291A0E48814207D200200E
:101AC000044A01468300401CD1500328FADB11B0C0
:101AD000F0BD000014030020CC00002024F400001E
:101AE000127A0000CDCCCC3D000048440000C84232
:101AF0000024F44880841E00C0E1E400F0B589B001
:101B0000062203A9432000F0D0F8039804990002AC
:101B1000401800B2FEF710FC0190059806990002EB
:101B2000401800B2FEF708FC0090079808990002E0
:101B3000401800B2FEF700FC184C02902168009893
:101B4000FEF76BFB009061680198FEF766FB019061
:101B5000A1680298FEF761FB02900120C00701997D
:101B6000009A414000910299424041400B4F0024AD
:101B700001926E46183F0291A50070590849FEF780
:101B800054FB0849FEF751FB7051214600F080F9E3
:101B9000641C7851032CEFDB09B0F0BD1403002066
:101BA00000007A3D35FA8E3C10B50E48FEF7B2FCC7
:101BB00005200007C16B0C4A1140C163C16B0122B3
:101BC00012031143C163C16B084A1140C163C16B69
:101BD000012252031143C16305490648FEF78EFEF8
:101BE00010BD000008000080EFEFFFFFDFDFFFFF08
:101BF000801A060000000240F0B50E460746154662
:101C00000021682000F05AF8040028D0F8B200F053
:101C100085F8040023D000F077F80121682000F057
:101C20004DF804001BD000233C200F4F6D1E0AE02E
:101C300081430C31396039680907FCD5B9689A00CD
:101C40005B1CB150DBB23968AB42F1DB8143083138
:101C5000396038680007FCD5B8689900705000F00A
:101C600053F82046F0BD00000000024008B50122F4
:101C70006946FFF7C1FF009808BD30B50C46054620
:101C80000021682000F01AF8002807D0E8B200F020
:101C900045F8002802D0E0B200F040F800F034F837
:101CA00030BD10B5FFF780FF10BD10B5FFF7A4FFE2
:101CB00010BD10B5FFF7DAFF10BD000010B5114AD6
:101CC00013680824A34320242343136013681B07CD
:101CD000FCD54006000E0843906010683C239843F2
:101CE0000830106010680007FCD5D0680029C0B229
:101CF00002D0402804D001E0182801D0002010BDF7
:101D0000012010BD00000240034908683C229043B6
:101D100018300860704700000000024008498860E1
:101D200008683C2290430830086008680007FCD52A
:101D3000C868282801D000207047012070470000A3
:101D40000000024010B5FFF798FF10BD10B501204C
:101D5000FFF736FA10BD000070B50646FFF7E6FD46
:101D6000184C21692061451A3046FEF7F0FA1649F1
:101D7000FEF75BFA06460121204689070C3000F089
:101D80004BF82846FEF7E3FA054630466168FEF751
:101D900044FA2946FEF749FA0C49FEF746FAE1688B
:101DA000FEF7EAF90A4A0B49E060904204DD01209F
:101DB00088617F20C00501E000208861606000200C
:101DC00070BD0000B80000208988883D6F12833AFA
:101DD00048E1FA3E4042005070B50D460446FFF718
:101DE000A5FD2146FEF790F96C4322090348914274
:101DF00001D9012100E00021816170BD4042005005
:101E0000014900208861704740420050014901208B
:101E1000886170474042005070B504460120C007F9
:101E20000D4645400E462068FEF7BCFA00D22660FB
:101E300028462168FEF7B6FA00D2256070BD70B55D
:101E400005460C467F2016461146C005FEF7E5F90B
:101E50002146FEF7EAF9044631462868FEF7E5F91F
:101E60002146FEF789F9286070BD10B5FEF71AFA11
:101E70007F24E4052146FEF7D4F9A04201DD204687
:101E800010BD0121C9078842FAD9002010BD000009
:101E900070B50C00054601D1FEF7DEFE0549A00035
:101EA00044180548294602682046FFF7C8FF206805
:101EB00070BD000020030020D00000201CB5FFF7FB
:101EC0005FFA00F099FB00F0B3FCFFF73BFD00F078
:101ED000FDFBFFF7E6FE00F0BDFA0021022000F056
:101EE00023FB0021032000F01FFB0021012000F054
:101EF0001BFB0021084600F017FBB548FFF70BFC61
:101F000000F0ACFB00F09AFB002827D0FFF748F95F
:101F1000B04901208872087100F031FBAE4D0024F9
:101F20000020FFF73FF92968FEF726F928607D2099
:101F3000C000FFF7F0FB641C402CF1DB0521C94316
:101F40002868FEF7EDF92860FFF70AFD00F016FBA0
:101F5000A2480068002803D0072021E004201FE0E9
:101F6000FFF7E4FC6863FFF7E1FC9B4C0546606B00
:101F7000281AFEF7ECF92063002802DC7F20C00558
:101F800020639749FEF751F996492063884201DDA5
:101F9000062005E0914865630068142802DD0820EA
:101FA000FFF7C2FBFFF7AAFDFFF710FA0020FFF7CB
:101FB000F9F8894CA168FEF738F906460120FFF7C9
:101FC000F1F80146884F20463A460830FFF737FFC0
:101FD00086483A46016820460C30FFF730FF20461D
:101FE000834A20302168FFF72AFF3A4631462046CF
:101FF000FFF725FF0121C943206AFEF791F9064644
:102000007C492068FEF711F93146FEF706F9009089
:10201000E4687948844255DD6F4F786A0646FEF7DA
:102020008BF97549FEF701F92146FEF7FEF8009994
:10203000FEF7A2F86749B4006C3108510646F86A09
:10204000002808D0002030398200401C8E500C2817
:10205000FADB0020F8625F4868490C300059FEF74F
:10206000E4F801905B483C3001593046FEF7D5F862
:102070000199FEF781F857493C310E51303908512A
:102080000146FEF7D2F8534E01469C36A0195C4A31
:10209000FFF7D5FE786A401C78620C2812DB00201E
:1020A0007862306800240190A700F0590199FEF78A
:1020B0006FF904D2F05901904748611C8162641C99
:1020C0000C2CF1DB444C2069002800D04A484D49D3
:1020D000FEF752F80746A06AFEF72EF9464E314643
:1020E000FEF7A3F8E168FEF7A0F80099FEF744F8C0
:1020F0003946FEF74DF903D343492068884201DA97
:10210000012000E000202061A06AFEF715F93146A9
:10211000FEF78BF8E168FEF788F80099FEF72CF8D7
:1021200060602069002801D0082108E03748006875
:10213000002806D036480068002804D00F21354812
:102140002DE00C2113E06069002812D0E06900281E
:1021500002D1FFF7EBFBE061FFF7E8FBE169411A11
:102160002C48814202D900206061E06108211848B2
:1021700015E0A069002815D0E069002802D1FFF71A
:10218000D5FBE061FFF7D2FBE169411A21488142AA
:1021900004D9A169491EA1610021E1610321FFF772
:1021A0001BFE0AE00B48807A002803D0FF20FFF7CF
:1021B0002DFE02E0FF20FFF723FEFFF747F87D2406
:1021C000E400FFF7B3FB401BA042FAD3CBE60000CC
:1021D000A0860100C001002044000020DC00002097
:1021E000BD3786350AD7A33C492E7F3F40000020EB
:1021F00029EA7F3F0000A03FCDCCCC3D42F27C3F9E
:1022000067B17F3F00006040CDCC2C40940000209F
:102210009C00002020A1070070B503468C00044DEF
:10222000044A60191946FFF70AFE285970BD0000DC
:10223000800100203333333F7047000005490868B0
:10224000022804D001DA02200860401C70470020F8
:10225000FAE70000000000200C494868002804D07C
:10226000012807D002280AD10BE008481C308860FA
:10227000012003E005482830886002204860401CA7
:1022800070470248103088600020F7E70000002007
:1022900010B508494868401C4860032801DD00204B
:1022A0004860044849681430415C252000F009FB6F
:1022B00010BD00009400002010B541680078800730
:1022C000800DFF38FF3802380818FEF735F808216E
:1022D000C943FEF725F810BDF1B54D4886B0016839
:1022E00006984C4F4C4E8400002904D038594B4975
:1022F000FDF79BFF38514A480025015945480C30ED
:102300000059FEF745F803D13059002800DD0125BA
:10231000434801210059C90748403E490C31095939
:10232000FEF736F804D131590120C007814227D881
:10233000002D25D137480221183000590090FDF7B3
:10234000EFFF34493C310959FDF716FF355929464D
:10235000FDF712FF3349FDF768FF33490959FDF7CF
:1023600064FF32490968FDF760FF3959FDF704FF42
:10237000284938513C310098085108462438055105
:1023800027480C300159E019FFF746FD26480C3864
:1023900001593059FDF749FF1E4E39590C36FDF7EA
:1023A000EBFE3051049020480C3000590390002877
:1023B00026DD06983746C5001837E8190190002138
:1023C0004068C943FDF7ACFF02901948002100594D
:1023D000C9430090FDF7A4FF0299FDF71EFF039982
:1023E000FDF723FF10491C39C968FDF71EFF04994A
:1023F000FDF717FF305101987959416000987851E5
:1024000007480159A019FFF707FD305907B0F0BD83
:10241000340000201C0100206401002048E17A3FC4
:10242000082900007EAA2A3E1C000020740000201B
:10243000FC02002010B5044801680448FDF732FF93
:102440000349C86010BD00007400002017B7513B5D
:102450000000002070B52C4C2046FEF75BF82B4D99
:102460002846FEF757F82A4E3046FEF753F801216A
:10247000002249072046FEF7DBF9002261072846C3
:10248000FEF7D6F9002220213046FEF7D1F9214E81
:10249000214D00240023324621462846FEF74AFA01
:1024A000641C062CF6DB59201C4916228823086080
:1024B0000A600B600C68002CF9D005221207906BA3
:1024C000202398431B0218439063906B102398437A
:1024D0001B0218439063506B114B184001231B07DC
:1024E000C0185063506B0F4B184001239B06C01857
:1024F0005063002008601D212846FEF793FA1D2135
:102500002846FEF797FA70BD1400C0A71500E0A793
:10251000160040E630750000000004400001005045
:10252000EFEFFFEFFBFBFFFB10B50A460446104937
:102530001046FDF77AFEFDF711FF030001D50023D9
:1025400002E0642B00DD64230A4A0B48002C09D00A
:10255000012C09D0022C09D0032C02D10021FEF756
:10256000E9F910BD0221FAE70321F8E70421F6E7B3
:102570000000C8423075000000000440704700B5FC
:1025800085B014216846FDF7DCFD684600F0AAF925
:102590000021012000F095F90121022000F091F9BD
:1025A0000121062000F08DF90F21112000F089F99A
:1025B0000021042000F085F90321084600F081F98C
:1025C00020211D2000F07DF900F07AF8FD2000F0B8
:1025D000B9F8002000F0B6F800F06CF8E22000F046
:1025E00041F90021052000F06CF98F21002000F056
:1025F00068F905B000BD000010B50848FDF78AFF76
:102600000320074980030860E12149020548FEF7DD
:10261000E3FA05A0FEF748FB10BD0000113D80A7BE
:10262000400000500000154053657269616C2069DC
:102630006E697469616C697A65640A0010B5752009
:10264000FFF737FB682807D0982805D07D2803D0EE
:10265000722801D0002010BD012010BD10B58021CE
:102660006B20FFF76FFB1248FFF755F801216B2035
:10267000FFF768FB7520FFF71CFB682801D00124D9
:1026800000E000246420FFF746F818211C20FFF723
:1026900059FB002C03D005211D20FFF753FB182107
:1026A0001B20FFF74FFB03211A20FFF74BFB10BD48
:1026B000409C0000014901204860704700420050E2
:1026C00001490020486070470042005038B505209D
:1026D0000007016B0163016B072252031143016381
:1026E000124841684160012202211148FEF7DEF8DC
:1026F000002204210F48FEF7D9F80F4C2046FDF7C1
:1027000009FF012210212046FEF792F80B480C4CDD
:1027100000900823042200212046FEF7A6F9204657
:10272000FEF79EF90021216238BD000040000050F4
:1027300000400050404100500C0040A680841E0024
:102740000000034005490862086801221043086040
:102750000868C043C007FBD070470000000003407A
:102760000549086208680122104308600868C043F0
:10277000C007FBD0086970470000034000B5002087
:10278000FFF7EEFF00BD000010B50446016810A081
:10279000FEF78AFA11A06168FEF786FA12A0A16816
:1027A000FEF782FA13A0E168FEF77EFA14A0216911
:1027B000FEF77AFA15A06169FEF776FA16A0A1690C
:1027C000FEF772FA17A0E169FEF76EFA10BD00007D
:1027D000723020203D20307825780A007231202088
:1027E0003D20307825780A00723220203D20307854
:1027F00025780A00723320203D20307825780A00A1
:10280000723132203D20307825780A006C72202009
:102810003D20307825780A00706320203D203078F4
:1028200025780A00707372203D20307825780A00E0
:1028300030B50848002101600848074A4261084A4B
:102840000724D3691B021B0A45042B43D361816112
:10285000046130BDE00000207FBB000000E000E02C
:1028600004ED00E010B50446FFF72AFF2046FFF70D
:1028700077FF0446FFF71EFF204610BD70B50D46DA
:1028800006460024FFF71CFF6120FFF769FF04E004
:10289000FFF774FFA1007050641CAC42F8DBFFF737
:1028A00009FF70BD10B5C406E40EFFF709FF20460E
:1028B000FFF756FFFFF762FF0446FFF7FBFE2046D7
:1028C00010BD70B58406A40E20200D460443FFF70A
:1028D000F7FE2046FFF736FF2846FFF733FFFFF7E6
:1028E000E9FE70BD70B505460024FFF7E9FE2A2019
:1028F000FFF728FFA0002858FFF724FF641C052CD1
:10290000F8DBFFF7D7FE70BDCDCC4C3FCDCC4C3FB4
:102910000000003FCDCC4C3FCDCC4C3F0000003FF1
:102920000C0100010003000C0200020003000C0374
:1029300000030003000C0400030004000C04000367
:102940000003000C0400030002000C04000300015B
:10295000000000007829000000000020F8000000BE
:10296000EA0C0000702A0000F80000203804000083
:10297000FA0C000095E3FFFF0000000000000000DB
:1029800010000020000000000AD7233E0AD7233E93
:102990000000003F9A99993F9A99993F9A99993ED8
:1029A000CDCC4C3FCDCC4C3F0000000001000000DE
:1029B0000100000000000000000000000000000016
:1029C000666686400000803F0000000001000000B5
:1029D0000000000000000000000000006666864065
:1029E00000000000000000000100000000000000E6
:1029F00000000000000000000000000000000000D7
:102A000000000000000000000000000000000000C6
:102A100000000000000000000000000000000000B6
:102A200000000000000000000000000000000000A6
:102A30000000000000000000000000000000000096
:102A400000000000000000000000003F0000000047
:102A50000000000000000000000000000000000076
:102A600000805101008051010000000000000000C2
:04000005000000F502
:00000001FF
